:020000040800F2
:10000000C80700204D020008F7180008271800084C
:10001000F5180008A10D0008291B000800000000C9
:10002000000000000000000000000000FB180008B5
:10003000A30D000800000000F9180008FD180008D2
:1000400067020008670200086702000867020008EC
:1000500067020008670200086702000867020008DC
:1000600067020008670200086702000867020008CC
:1000700067020008670200086702000867020008BC
:10008000670200086702000867020008000000001D
:1000900000000000000000000000000067020008EF
:1000A000670200086702000867020008670200088C
:1000B000670200086702000867020008670200087C
:1000C000670200086702000867020008670200086C
:1000D00067020008670200086702000800000000CD
:1000E00067020008670200086702000800000000BD
:1000F000000000000000000000000000670200088F
:10010000000000006702000867020008670200089C
:1001100000000000000000000000000000000000DF
:10012000670200086702000867020008670200080B
:10013000670200080000000000000000000000004E
:10014000000000000000000000000000670200083E
:1001500067020008670200086702000867020008DB
:1001600067020008670200080000000000000000AD
:10017000000000000000000000000000000000007F
:1001800000000000670200080000000000000000FE
:100190006702000800F002F800F049F80AA090E8B1
:1001A000000C82448344AAF10107DA4501D100F032
:1001B0003EF8AFF2090EBAE80F0013F0010F18BFB6
:1001C000FB1A43F001031847181A0000381A000000
:1001D000103A24BF78C878C1FAD8520724BF30C873
:1001E00030C144BF04680C60704700000023002445
:1001F00000250026103A28BF78C1FBD8520728BF37
:1002000030C148BF0B607047632900F05481002063
:1002100070471FB501F0CCFC9DE8030000F092FB95
:1002200000F084F91FBD10B500F0E9F910BD00F031
:100230004CFA1146FFF7EDFF01F094FC00F050FB83
:1002400003B4FFF7F0FF03BC00F00EFD0948804740
:1002500009480047FEE7FEE7FEE7FEE7FEE7FEE7A8
:10026000FEE7FEE7FEE7FEE704480549054A064BC0
:10027000704700009519000895010008C80100208A
:10028000C8070020C8030020C803002053EA020C5E
:1002900000F069802DE9F04B4FF00006002B1FBFE6
:1002A000B3FA83F503FA05F424FA05F65E4012BFAB
:1002B0001643B2FA82F502FA05F4C5F120051EBF15
:1002C00022FA05FC44EA0C04203556EA044C4FEAB5
:1002D000144418BF641C4FF000084FF0000990420E
:1002E00071EB030C39D3002919BFB1FA81F701FA78
:1002F00007F6B0FA80F700FA07F6C7F120071EBF2D
:1003000020FA07FC46EA0C062037B6FBF4FCA7EB04
:100310000507103F07F01F0BCBF120060CFA0BFB73
:100320002CFA06F644BFB3460026202FA4BF5E4633
:100330004FF0000B5BEA060C08BF4FF0010B19EB06
:100340000B09ABFB027C48EB0608C01B06FB02CC8A
:100350000BFB03CC71EB0C01C1E70B460246414697
:100360004846BDE8F08B13B54FF000004FF0000198
:10037000AFF30080BDE81C40704700000FB4044993
:1003800010B503AA029800F0A3F810BC5DF814FBA6
:10039000BC0000202DE9F0410E46044600202062FA
:1003A0002046E168884730B3252805D0D4E90121EB
:1003B0009047206A401CF2E7E16820460027884702
:1003C000050018D0A5F14100192802D820354FF4B6
:1003D00000673246294620462760FFF715FF40B1E7
:1003E000012804D0F61D26F007060836D8E7361D8A
:1003F000D6E72846DAE7206ABDE8F08170B50C46FA
:100400000546012A05D02878800600D5EA69002330
:1004100002E0012305E05B1C934202D2E05C00286D
:10042000F9D1A869E618C01AA861286A1844286298
:100430002846AFF3008004E0D5E9012114F8010B50
:100440009047B442F8D32846AFF3008070BD4FF018
:10045000000200B5134694469646203922BFA0E814
:100460000C50A0E80C50B1F12001BFF4F7AF090720
:1004700028BFA0E80C5048BF0CC05DF804EB890011
:1004800028BF40F8042B08BF704748BF20F8022B54
:1004900011F0804F18BF00F8012B7047704770476C
:1004A000704710B5436913B1AFF3008001E0FFF767
:1004B000A5FF012010BD127800F124010A7000226E
:1004C0004A700122EDE711684FF0FF32E9E70000C2
:1004D000074B70B50D467B4400F011F804462846E2
:1004E00000F020F810B14FF0FF3070BD204670BD15
:1004F0007316000001694A1C02610878704700B554
:100500008FB0CDE901310021059105497944CDE94C
:10051000031011466846FFF73DFF0FB000BD000015
:10052000E5FFFFFF007B00F08000704710B54248F8
:100530005421FFF78CFF41485421FFF788FF4048C2
:100540005421FFF784FF3F493B483C4A3F4B08603A
:100550003D490A603A491960531C0365481C1065FF
:10056000012008653B48344A39A1784400F01CF961
:1005700020B9384878440A3800F0BBF937482F4A88
:1005800035A1784400F010F920B9344878440A388D
:1005900000F0AFF932482A4A2FA1784400F004F95C
:1005A00020B92F4878440A3800F0A3F940232248A4
:1005B000DC000021224600F0D4F820B12548784420
:1005C000543800F096F91D4822464023002100F0DF
:1005D000C8F820B121487844543800F08AF9184806
:1005E00022461023002100F0BCF8002806D01C4849
:1005F0007844BDE81040563800F07BB910BD104873
:1006000070B5006D20F001040B4800F043F90B4871
:1006100000F040F90A4800F03DF909E0206D20F0B3
:100620000105204600F036F9204600F073F82C460C
:10063000002CF3D170BD000068000020BC00002039
:1006400010010020180000201C00002020000020C5
:1006500072000000641600007700000050160000D1
:100660003C1600000EB5CDE9000100F0DDFA029065
:1006700069460120ABBE0EBD08B569460090022058
:10068000ABBE08BD1FB58DE8070069460520ABBEAF
:1006900004B010BD1FB58DE80F0069460620ABBE43
:1006A000F6E708B5694600900920ABBE08BD1CB549
:1006B000CDE9000169460A20ABBE1CBD704708B5F4
:1006C000694600900C20ABBE08BD754600F018F9D5
:1006D000AE4605006946534620F00700854618B02F
:1006E00020B5FFF7C1FDBDE820404FF000064FF0F8
:1006F00000074FF000084FF0000B21F00701AC4657
:10070000ACE8C009ACE8C009ACE8C009ACE8C00975
:100710008D46704770B50446051F00F0F7F8006875
:10072000002C14BF446870BD002C18BFAC423CBF05
:1007300020466468F8D301680A18AA4218BF4560C9
:1007400003D12A6805461144016028684119A14275
:100750001CBF6C6070BD61686960216808442860D6
:1007600070BD70B5C468A50713D0650211D4B2F589
:10077000807F09D0B2F5007F06D0B2F5806F08D136
:10078000012300F1240106E05D1E6FF07F46B542B3
:1007900001D3012070BD0161C361416024F4706127
:1007A0001143C160002070BD2DE9F0410C460746A1
:1007B0001646104600F06EF82078611C61280AD0B9
:1007C000722802D077283CD102E00125002405E000
:1007D0000225042402E0082448F2020511F8010B66
:1007E0002B2806D0622809D011F8010C74280AD0F1
:1007F0000BE045F0030544F00204EFE745F0040583
:1008000044F00104EAE744F0100438462146FFF7BB
:1008100029FF411C15D00021316171604FF4007136
:10082000F560F1617061200704D530460222002195
:1008300000F0E6F8306D40F0010030653046BDE86C
:10084000F0810020FBE72DE9F0410D460646104CF3
:10085000206DC10704D0410804D020F00104F7E75F
:1008600022460EE0542000F09CF807000ED0206DC8
:1008700047F001010843542120653846FFF7E7FDA2
:100880003A4629463046BDE8F0418DE70020D6E7DC
:10089000680000202DE9F04704464FF000094FF0B2
:1008A000FF37C568D4E90486A80707D0204600F0C2
:1008B00057F93046FFF7E0FE002802DA3846BDE877
:1008C000F087280502D54046FFF724FF4C2120463B
:1008D000FFF7BDFD206D20F0010020654846EEE7E2
:1008E00010B50446AFF300802046BDE81040FFF786
:1008F000A7BC10B500F07EF9BDE8104000F074B957
:1009000000487047640100207047000000487047AD
:100910006C010020704770477047704738B5044637
:100920000A4600206946AFF30080002808BF38BDA2
:1009300002460099204600F0A4F9012038BD0120AC
:1009400000F0F3B9F8B5AFF30080054600200C467F
:10095000102000BF0646A819A0420DD932466946AC
:100960000020AFF30080070008BF00F0DEF9009818
:10097000A04218BF0546C419FFF7C8FF0560074627
:10098000F01D20F007004619284600F073F9B44224
:1009900008BFF8BDA21B31463868BDE8F84000F03A
:1009A00070B970B50646FFF7B1FF056806F10B0098
:1009B00020F00704B4429CBF002070BD2B466A683B
:1009C000BAB11068A04210D304F1080188423CBFBC
:1009D0005068586007D35168101941601168091BAD
:1009E000016058601460101D70BD13465268002AE3
:1009F000E7D121462846FFF791FF0028DED170BDE0
:100A00002DE9F041044616460D464769007B8007F4
:100A10002ED03846FFF745FE50BB3EB3012E02D024
:100A2000022E25D104E0204600F045F905441DE0E2
:100A30003846FFF744FEE168002841F01001E1600C
:100A400005DA204600F058F80120BDE8F081C9031E
:100A50000BD56268E16A914200D81146A26911443F
:100A60002269891A814200DD08460544002D01DA19
:100A70000220EAE7E16A6068E268814206D29103F7
:100A8000E06203D522F4003141F01002A66900278C
:100A9000AE4213DCE16A814201D90B4600E0034615
:100AA00003EB060C2369ACEB030CAC4506DD81427D
:100AB00001D98C4600E084469C4505D1A76027609B
:100AC00042F02000A5620DE0AD1BE669AE1B81423D
:100AD000A66000D90846C01A281A2060581960601C
:100AE00022F0200003490840E060002084F84870AC
:100AF000ABE70000BFCFD7FFC16821F4001141F080
:100B00008001C16000218160016070472DE9F047DC
:100B1000814614460E464FF0FF383248D568576973
:100B2000054209D03846A169FFF7C1FD002811DB55
:100B30002C48C0430540E5602B46324649463846BE
:100B4000FFF7A0FDA16920F00042B21A114400286D
:100B5000A16103D02046FFF7CFFF4046BDE8F087F4
:100B600070B504460569C06A6168884200D80846C5
:100B7000E16821F42011E160C90312D5A84208D030
:100B80002246411B2846FFF7C1FF10B14FF0FF304E
:100B900070BD0020E562C4E90150E06820F48030B7
:100BA000E060002070BD10B50446C06820F0200051
:100BB000E060A16AA06988420DD02046FFF7D0FF0F
:100BC000E06820F4405040F01000E060A06AA061AE
:100BD0002069E062606044F24001E0688843E060C0
:100BE00010BD000010000200002801D000F03CB849
:100BF0007047000010B5014602A000F07DF801200A
:100C000010BD000053494752545245443A205265A2
:100C10006469726563743A2063616E2774206F7033
:100C2000656E3A200000000010B5431C02E010F889
:100C3000011B71B18107FAD14FF0013202C88C1A41
:100C40008C4314EAC211F9D0C01A0A0603D0C01EA0
:100C500010BDC01A10BD0A0401D0801E10BD0902CB
:100C6000FCD0401E10BD000001491820ABBEFEE7BD
:100C70002600020000210160C0E901107047102029
:100C80007047034640688C46002818BF88423CBF26
:100C900003464068F8D318681844884207D00CF11E
:100CA000030020F00700001D411A521A0146081DDA
:100CB0000A60FFF72FBD10B50146C268900703D048
:100CC000900607D5886A0AE000F03EF8012101602D
:100CD000881E10BD8B69486818440B69C01A91F8CA
:100CE00048301BB191F84910401A10BD1103FCD5D2
:100CF0000028FADD401E10BD70B505460C460A20DE
:100D000000E06D1C00F018F835B128780028F8D103
:100D100002E0641C00F010F814B120780028F8D12B
:100D2000BDE870400A2000F007B810B500F010F8D8
:100D3000BDE81040FFF758BF08B569468DF80000C0
:100D40000320ABBE08BD00000048704764010020CE
:100D500010B5012805D0002103A0FFF7CDFF012029
:100D600010BD09A1F8E7000053494752544D454DC5
:100D70003A204F7574206F662068656170206D653C
:100D80006D6F7279000000003A2048656170206D37
:100D9000656D6F727920636F72727570746564002F
:100DA000FEE7704772B6FEE710B5040002D0607926
:100DB00010B106E0012010BD00202071204600F097
:100DC00005F801206071002010BD000008B5006822
:100DD0000649884208D10648016841F48051016003
:100DE000006800F48050009008BD00000030024010
:100DF0003038024070B5044600F00CF90546601C1E
:100E000002D004480078044400F004F9401BA042DA
:100E1000FAD370BD080000202DE9F84FDFF8B8A123
:100E20000022012403254FF00F090AF1040BAAF157
:100E3000040E00BF0B6804FA02F63340B34273D1CC
:100E40000F7907F00307012F01D0022F16D1876811
:100E50004FEA420805FA08FC27EA0C07D1F80CC053
:100E60000CFA08FC4CEA070CC0F808C04768B74306
:100E70000E79C6F3001696403E4346600E79F6435F
:100E8000B6070DD0C768560005FA06FC27EA0C071E
:100E9000D1F808C00CFA06FC4CEA070CC0F80CC0EC
:100EA0000E7906F00306022E10D1D60800EB860854
:100EB000D8F8206057074FEAD76C09FA0CF7BE4301
:100EC0000F6907FA0CF73743C8F8207006684FEA35
:100ED000420C05FA0CF7BE430F7907F0030707FA37
:100EE0000CF7374307604E6816F4403F6DD03B4E19
:100EF000376847F480473760366822F0030706F406
:100F000080460096364E07EB060CDCF8086897071B
:100F10003F0F09FA07F826EA0806DFF8C8804045BF
:100F200003D14FF000081EE04FE0DFF8BC804045E1
:100F300002D14FF0010816E0DFF8B080404502D141
:100F40004FF002080FE0DFF8A880404502D14FF0D3
:100F5000030808E0DFF89C80404502D14FF0040808
:100F600001E04FF0070808FA07F848EA0608CCF84D
:100F70000888DAF800605746D1F804C09E435FEA5B
:100F8000CC2C00D51E433E60DBF800605F46D1F8F4
:100F900004C09E435FEA8C2C00D51E433E60DEF801
:100FA00000607746D1F804C09E435FEA8C3C00D5D0
:100FB0001E433E60084F083F3E68D1F804C09E4380
:100FC0005FEACC3C00D51E433E60521C102AFFF461
:100FD00031AFBDE8F88F0000083C014044380240C2
:100FE00000300140000002400004024000080240BE
:100FF000000C024000100240426921EA02030A404C
:1010000043EA0241816170470AB181617047090476
:10101000FBE70000014880687047000008000020DE
:1010200002488168027811448160704708000020FE
:101030000B4810B5016841F400710160016841F48A
:1010400080610160016841F480710160032000F05B
:1010500061F80F2000F006F800F024F8002010BD21
:10106000003C024070B50D4D04464FF47A7128786B
:10107000B1FBF0F00A490968B1FBF0F000F0FEFAAC
:1010800048B9102C07D200222146501E00F022F849
:1010900000206C6070BD012070BD000008000020C1
:1010A000140000200A4808B5016841F4804101603D
:1010B000006800F4804000900548001F016841F07E
:1010C00080510160006800F08050009008BD000071
:1010D00044380240F0B40E4B1B680C46C3F30223A5
:1010E000C3F10705042D00D90425191D072901D2D4
:1010F000002300E0DB1E012606FA05F1491E21400F
:1011000099409E40761E16403143F0BC00F00DBD64
:101110000CED00E0064900F0070208684FF6FF03F7
:10112000184040EA0220034A10430860704700005C
:101130000CED00E00000FA052DE9F0470E46050031
:1011400065D0DFF81481D8F80000F7B200F007008E
:10115000B04207D288F80070D8F8000000F007000D
:10116000B04254D128683D4C810712D5400703D5C1
:10117000206840F4E05020602878000703D52068FC
:1011800040F4604020602068A96820F0F000084327
:1011900020602878C0072DD03049686808390128B8
:1011A00012D0022813D0032811D00968890700291A
:1011B0002DDA216821F0030101432160FFF72AFFA6
:1011C000814641F2883A0EE009688903EFE7096831
:1011D0008901ECE7FFF71EFFA0EB0901514502D999
:1011E0000320BDE8F0872068696800F00C00B0EBD0
:1011F000810FEFD1D8F80010404601F00701B1424D
:1012000007D90770006800F00700B04201D0012044
:10121000E7E72878400705D52068E96820F4E05022
:10122000084320602878000706D52068296920F443
:10123000604040EAC100206000F038F82168084AA8
:10124000C1F30311515CC8400649086006480068B4
:10125000FFF708FF0020C4E7003C024008380240C6
:10126000BA1B0008140000200C00002004480549A7
:1012700000680968044AC1F38221515CC840704784
:101280001400002008380240CA1B00080448054921
:1012900000680968044AC1F34231515CC840704794
:1012A0001400002008380240CA1B0008154810B579
:1012B000006810F00C02144813D01449042A0FD00F
:1012C000082A0ED10F4C241F2268236802F03F0227
:1012D0005B0207D52068C0F38810A0FB010106E07F
:1012E000084610BD2168C1F38811A1FB000100234D
:1012F000FEF7CCFF2168C1F30141491C4900B0FB56
:10130000F1F010BD083802400024F40040787D015F
:101310002DE9F84F04006ED02078DFF84C93C00719
:10132000A9F104054AD009F104000168C1F3810163
:10133000012908D00068C0F3810002280AD1D9F839
:101340000000400206D52868800337D56068002871
:10135000E1D033E06068B0F5803F10D0B0F5A02F49
:10136000286810D020F480302860286820F480207D
:1013700028606068A8B1FFF74DFE06460DE02868BA
:1013800040F48030F4E740F480202860F7E700BFA5
:10139000FFF740FE801B642873D828688003F7D5C8
:1013A0000CE0FFF737FE064605E000BFFFF732FE10
:1013B000801B6428F0D828688003F7D42078DFF8F1
:1013C000AC8280074FF0000A3ED5A748001D016897
:1013D00011F00C0F08D00068C0F3810002280BD177
:1013E000D9F80000400207D42868800716D5E068C5
:1013F000012800D112E033E1E068B8B10120C8F85B
:101400000000FFF707FE064605E000BFFFF702FEFB
:10141000801B0228C0D828688007F7D52868216972
:1014200020F0F80040EAC10028600DE0C8F800A0F4
:10143000FFF7F0FD064604E0FFF7ECFD801B0228F5
:101440001FD828688007F7D42078000722D5864F58
:1014500087486169703771B101210160FFF7DAFDDA
:10146000064604E0FFF7D6FD801B022809D838683D
:101470008007F7D50EE0C0F800A0FFF7CBFD0646C9
:1014800005E082E0FFF7C6FD801B02287DD83868A2
:101490008007F7D42078400768D5DFF8CCB1002763
:1014A0000BF13C0BDBF80000C0000BD4DBF80010A4
:1014B00041F08051CBF80010DBF80000012700F06C
:1014C000805000906B4E3068C00510D4306840F4F6
:1014D00080703060FFF79EFD009005E0FFF79AFDF9
:1014E0000099401A022850D83068C005F6D55E4EE3
:1014F000A0686C3601280FD00528306810D020F085
:1015000001003060306820F004003060A068B8B19D
:10151000FFF780FD00900FE0306840F00100F4E735
:1015200040F004003060F7E7FFF774FD0099411ABE
:1015300041F28830814266D830688007F4D50EE0E9
:10154000FFF768FD009007E0FFF764FD0099411A7E
:1015500041F28830814256D830688007F4D42FB1E8
:10156000DBF8001021F08051CBF80010A069C8B35F
:101570003D49091D0968C1F3810102294AD00228A9
:10158000504607D0C8F8600000E03CE0FFF742FD9D
:1015900004463BE04746C8F86000FFF73BFD0646BF
:1015A00005E000BFFFF736FD801B02282BD8286816
:1015B0008001F7D4D4E907010843A16A2E4A4908FB
:1015C00002EB0141626A41EA8211084394F82C104F
:1015D00040EA0161C9F8001001203866FFF71AFDE2
:1015E000044606E03EE000BFFFF714FD001B0228A2
:1015F00009D828688001F7D534E000BFFFF70AFD5D
:10160000001B022802D90320BDE8F88F286880015A
:10161000F4D427E00128F7D0D9F80000E26900F4FB
:10162000800191421CD1226A00F03F01914217D102
:1016300047F6C071626A0140B1EB821F10D1A26A05
:101640004FF0FF3300F4403103EB5202B1EB024F95
:1016500006D194F82C1000F07060B0EB016F01D04F
:101660000120D1E70020CFE70438024000004742C4
:10167000800E4742007000400000FFFF10B5401E82
:10168000B0F1807F01D3012010BD4FF0E0246061F4
:101690000F21601700F049FA0020A06107202061A7
:1016A000002010BD70B5040004D094F83D00002562
:1016B00010B106E0012070BD84F83C50204600F0D7
:1016C00023F8242084F83D002068C16821F40051EB
:1016D000C160204600F066F92068016921F490415C
:1016E00001612068416921F02A0141612068C168D7
:1016F00041F40051C1602564202084F83D0084F845
:101700003E00002070BD000010B586B004461421D4
:101710006846FEF79CFE14492068884221D1134890
:101720000021026842F010020260006800F0100020
:1017300005900E481438026842F001020260006809
:1017400000F0010005904FF4C06000900220CDE948
:101750000101032003900720049069460448FFF725
:101760005BFB06B010BD0000001001404438024091
:10177000000002402DE9F843044690F83D001F4662
:1017800016460D4620284CD1C5B1BEB194F83C0098
:10179000012846D0012084F83C004FF00008C4F82E
:1017A0004080212084F83D00FFF734FCA684814668
:1017B000E684A068B0F5805F03D004E00120BDE8B6
:1017C000F883206928B12E465FF0000584F83C803C
:1017D0000EE00026FAE78021204600F069F9A0B962
:1017E000AEB116F8010B21684860E08C401EE08421
:1017F000E08C4B464FF0000200970028EBD14FF0F1
:101800004001204600F054F930B10320D7E735F805
:10181000020BC0F30800E6E7202084F83D0000201A
:10182000CDE70220CBE7FEE7074910B50548086081
:101830000846FFF7B9FA002803D0BDE81040FFF7CB
:10184000B1BA10BD003002400000002070B586B073
:1018500014216846FEF7FBFD16480024016841F09C
:1018600004010160016801F004010591016841F083
:1018700080010160016801F080010591016841F07B
:101880000101016000680C4E00F001004FF40055AA
:101890000590002229463046FFF7B6FB012000954F
:1018A000CDE90104694630460394FFF7B5FA06B066
:1018B00070BD000030380240000802400C4810B5EE
:1018C0000A4901604FF4E1314160002181600C223E
:1018D000C160C0E904128161C161FFF7E3FE002825
:1018E00003D0BDE81040FFF75DBA10BD0010014005
:1018F00024000020FEE7FEE770477047FFF790BB2B
:1019000030B593B030216846FEF7A1FD14210CA834
:10191000FEF79DFD1D480024016841F080510160E3
:10192000006800F0805011901948016821F440418E
:1019300041F4004101600068022500F4404011902C
:101940000120039010200490009506950820CDE911
:1019500007405420CDE9090504200B906846FFF7A5
:10196000D7FC08B172B6FEE70F20CDE90C054FF4A5
:101970008050CDE90E4002210CA81094FFF7DCFB4B
:10198000002801D072B6FEE713B030BD40380240E7
:10199000007000400248016841F470010160704726
:1019A00088ED00E070B5044600680169E26821F442
:1019B0004051114301612169A068E26908436169EE
:1019C000114308432168CA6849F20C639A430243F1
:1019D000CA6020684169A26921F4407111434161E4
:1019E00031492068884202D03049884202D1FFF74D
:1019F0004DFC01E0FFF73AFCE26900231921642560
:101A00003226B2F5004F626828D0A0FB0101930F87
:101A10009200FEF73BFC0146B0FBF5F06FF01802B8
:101A2000504301EB800006EB0010B0FBF5F000F036
:101A3000F002B1FBF5F002EB0012B1FBF5F06FF034
:101A40001803584301EB800006EB0010B0FBF5F0E3
:101A500000F00F0021681044886070BDA0FB0101F8
:101A600092185B41FEF712FC0146B0FBF5F0020153
:101A7000B1FBF5F06FF01803584301EB800006EB63
:101A8000C000B0FBF5F000F0F80002EB4002B1FB43
:101A9000F5F0584301EB800006EBC000B0FBF5F019
:101AA00000F00700D6E700000010014000140140DC
:101AB0002DE9F041984617460E460446069D27E05C
:101AC000681C25D02DB1FFF7A5FAA0EB0800A842AD
:101AD0001ED920680C3050E8001F21F4D07140E876
:101AE0000012002AF5D12068143050E8001F21F0C0
:101AF000010140E80012002AF5D1202084F83D00C1
:101B000084F83E00002084F83C000320BDE8F0810A
:101B10002068006836EA000004D00020B842CFD028
:101B20000020F3E70120F9E7FEE70907090E002886
:101B300004DB00F1E02080F80014704700F00F0093
:101B400000F1E02080F8141D7047000013B54FF03D
:101B5000FF33012269460248FFF70CFE00981CBDC6
:101B600024000020FFF764FAFFF7CAFEFFF76EFEBD
:101B7000FFF75AFEFFF7A2FE074D4FF4005421462F
:101B80002846FFF739FA6420FFF734F94122612132
:101B900002A0FEF7F3FBF2E700080240436861721F
:101BA0006163746572733A2025632025630A00001F
:101BB0004FF04070E1EE100A704700000000000096
:101BC00000000102030406070809000000000102EA
:101BD00003043A7474003A7474003A747400000098
:101BE000001C00080000002024000000D0010008B4
:101BF000241C000824000020A4070000EC010008B9
:101C000000000000000000000100000010000000C3
:101C1000000000000024F4000000000000000000AC
:041C200000000000C0
:040000050800019559
:00000001FF
