:020000040800F2
:1000000060E500200D030008C31A0008F31900087A
:10001000C11A0008A10F0008191D00080000000007
:100020000000000000000000000000004D02000879
:10003000A30F000800000000A9020008C51A00086C
:1000400027030008270300082703000827030008E8
:1000500027030008270300082703000827030008D8
:1000600027030008270300082703000827030008C8
:1000700027030008270300082703000827030008B8
:1000800027030008270300082703000800000000DA
:10009000000000000000000000000000270300082E
:1000A0002703000827030008270300082703000888
:1000B0002703000827030008270300082703000878
:1000C0002703000827030008270300082703000868
:1000D000270300082703000827030008000000008A
:1000E000270300082703000827030008000000007A
:1000F00000000000000000000000000027030008CE
:100100000000000027030008270300082703000859
:1001100000000000000000000000000000000000DF
:100120002703000827030008270300082703000807
:10013000270300080000000000000000000000008D
:10014000000000000000000000000000270300087D
:1001500027030008270300082703000827030008D7
:10016000270300082703000800000000000000002B
:10017000000000000000000000000000000000007F
:10018000000000002703000800000000000000003D
:100190002703000800F002F800F049F80AA090E8F0
:1001A000000C82448344AAF10107DA4501D100F032
:1001B0003EF8AFF2090EBAE80F0013F0010F18BFB6
:1001C000FB1A43F001031847D82D0000F82D00005A
:1001D000103A24BF78C878C1FAD8520724BF30C873
:1001E00030C144BF04680C60704700000023002445
:1001F00000250026103A28BF78C1FBD8520728BF37
:1002000030C148BF0B607047632900F001820020B5
:1002100070471FB502F0ACFE9DE8030000F092FCB1
:1002200000F084FA1FBD10B500F0E9FA10BD00F02F
:100230004CFB1146FFF7EDFF01F08CFD00F050FC88
:1002400003B4FFF7F0FF03BC00F00EFE2C4B19685F
:100250000868B0E8F04F80F30988BFF36F8F4FF064
:10026000000080F311887047000000000848006813
:10027000006880F308884FF0000080F3148862B6AD
:1002800061B6BFF34F8FBFF36F8F00DF00BF00BFBA
:1002900008ED00E0DFF80C00016841F47001016036
:1002A000704700BF88ED00E0EFF30980BFF36F8F68
:1002B000134B1A681EF0100F08BF20ED108A20E9BA
:1002C000F04F106009B44FF0500080F31188BFF375
:1002D0004F8FBFF36F8F02F075FA4FF0000080F37D
:1002E000118809BC19680868B0E8F04F1EF0100FBB
:1002F00008BFB0EC108A80F30988BFF36F8F704796
:100300001C000020EFF3058070470000094880477B
:1003100009480047FEE7FEE7FEE7FEE7FEE7FEE7E7
:10032000FEE7FEE7FEE7FEE704480549054A064BFF
:1003300070470000851B00089501000860DF002061
:1003400060E5002060E1002060E1002053EA020C3B
:1003500000F069802DE9F04B4FF00006002B1FBF25
:10036000B3FA83F503FA05F424FA05F65E4012BFEA
:100370001643B2FA82F502FA05F4C5F120051EBF54
:1003800022FA05FC44EA0C04203556EA044C4FEAF4
:10039000144418BF641C4FF000084FF0000990424D
:1003A00071EB030C39D3002919BFB1FA81F701FAB7
:1003B00007F6B0FA80F700FA07F6C7F120071EBF6C
:1003C00020FA07FC46EA0C062037B6FBF4FCA7EB44
:1003D0000507103F07F01F0BCBF120060CFA0BFBB3
:1003E0002CFA06F644BFB3460026202FA4BF5E4673
:1003F0004FF0000B5BEA060C08BF4FF0010B19EB46
:100400000B09ABFB027C48EB0608C01B06FB02CCC9
:100410000BFB03CC71EB0C01C1E70B4602464146D6
:100420004846BDE8F08B13B54FF000004FF00001D7
:10043000AFF30080BDE81C40704700000FB40449D2
:1004400010B503AA029800F0EFF810BC5DF814FB99
:1004500058DE00202DE9F0410E46044600202062BF
:100460002046E168884730B3252805D0D4E901212A
:100470009047206A401CF2E7E16820460027884741
:10048000050018D0A5F14100192802D820354FF4F5
:1004900000673246294620462760FFF7B5FE40B187
:1004A000012804D0F61D26F007060836D8E7361DC9
:1004B000D6E72846DAE7206ABDE8F08170B50C4639
:1004C0000546012A05D02878800600D5EA69002370
:1004D00002E0012305E05B1C934202D2E05C0028AD
:1004E000F9D1A869E618C01AA861286A18442862D8
:1004F0002846AFF3008004E0D5E9012114F8010B90
:100500009047B442F8D32846AFF3008070BD032A69
:1005100040F2308010F0030C00F0158011F8013B20
:10052000BCF1020F624498BF11F801CB00F8013B07
:1005300038BF11F8013BA2F1040298BF00F801CBCB
:1005400038BF00F8013B11F0030300F07F80083A48
:10055000C0F0088051F8043B083A51F804CBA0E8F9
:100560000810F5E7121D5CBF51F8043B40F8043B4E
:10057000AFF30080D20724BF11F8013B11F801CB83
:1005800048BF11F8012B24BF00F8013B00F801CB54
:1005900048BF00F8012B704702F0FF0343EA032233
:1005A00042EA024200F086B84FF0000200B513465E
:1005B00094469646203922BFA0E80C50A0E80C5083
:1005C000B1F12001BFF4F7AF090728BFA0E80C5034
:1005D00048BF0CC05DF804EB890028BF40F8042B2D
:1005E00008BF704748BF20F8022B11F0804F18BF9A
:1005F00000F8012B704770477047704710B543698A
:1006000013B1AFF3008001E0FFF758FF012010BDE8
:10061000127800F124010A7000224A700122EDE7ED
:1006200011684FF0FF32E9E7074B70B50D467B4488
:1006300000F065F80446284600F074F810B14FF059
:10064000FF3070BD204670BD0B17000010B5203A7A
:10065000C0F00B80B1E81850203AA0E81850B1E87B
:100660001850A0E81850BFF4F5AF5FEA027C24BF31
:10067000B1E81850A0E8185044BF18C918C0BDE828
:1006800010405FEA827C24BF51F8043B40F8043BF1
:1006900008BF7047D20728BF31F8023B48BF11F8A6
:1006A000012B28BF20F8023B48BF00F8012B704700
:1006B0004FF000020429C0F0128010F0030C3FF448
:1006C00075AFCCF1040CBCF1020F18BF00F8012B80
:1006D000A8BF20F8022BA1EB0C01FFF767BF5FEA70
:1006E000C17C24BF00F8012B00F8012B48BF00F8A3
:1006F000012B704701694A1C02610878704700B5F8
:100700008FB0CDE901310021059105497944CDE94A
:10071000031011466846FFF79DFE0FB000BD0000B4
:10072000E5FFFFFF007B00F08000704710B54248F6
:100730005421FFF739FF41485421FFF735FF404866
:100740005421FFF731FF3F493B483C4A3F4B08608B
:100750003D490A603A491960531C0365481C1065FD
:10076000012008653B48344A39A1784400F01CF95F
:1007700020B9384878440A3800F0BBF937482F4A86
:1007800035A1784400F010F920B9344878440A388B
:1007900000F0AFF932482A4A2FA1784400F004F95A
:1007A00020B92F4878440A3800F0A3F940232248A2
:1007B000DC000021224600F0D4F820B1254878441E
:1007C000543800F096F91D4822464023002100F0DD
:1007D000C8F820B121487844543800F08AF9184804
:1007E00022461023002100F0BCF8002806D01C4847
:1007F0007844BDE81040563800F07BB910BD104871
:1008000070B5006D20F001040B4800F043F90B486F
:1008100000F040F90A4800F03DF909E0206D20F0B1
:100820000105204600F036F9204600F073F82C460A
:10083000002CF3D170BD000004DE002058DE002043
:10084000ACDE002084000020880000208C00002006
:10085000720000002428000077000000102800002B
:10086000FC2700000EB5CDE9000100F0DDFA029092
:1008700069460120ABBE0EBD08B569460090022056
:10088000ABBE08BD1FB58DE8070069460520ABBEAD
:1008900004B010BD1FB58DE80F0069460620ABBE41
:1008A000F6E708B5694600900920ABBE08BD1CB547
:1008B000CDE9000169460A20ABBE1CBD704708B5F2
:1008C000694600900C20ABBE08BD754600F018F9D3
:1008D000AE4605006946534620F00700854618B02D
:1008E00020B5FFF721FDBDE820404FF000064FF096
:1008F00000074FF000084FF0000B21F00701AC4655
:10090000ACE8C009ACE8C009ACE8C009ACE8C00973
:100910008D46704770B50446051F00F0F7F8006873
:10092000002C14BF446870BD002C18BFAC423CBF03
:1009300020466468F8D301680A18AA4218BF4560C7
:1009400003D12A6805461144016028684119A14273
:100950001CBF6C6070BD61686960216808442860D4
:1009600070BD70B5C468A50713D0650211D4B2F587
:10097000807F09D0B2F5007F06D0B2F5806F08D134
:10098000012300F1240106E05D1E6FF07F46B542B1
:1009900001D3012070BD0161C361416024F4706125
:1009A0001143C160002070BD2DE9F0410C4607469F
:1009B0001646104600F06EF82078611C61280AD0B7
:1009C000722802D077283CD102E00125002405E0FE
:1009D0000225042402E0082448F2020511F8010B64
:1009E0002B2806D0622809D011F8010C74280AD0EF
:1009F0000BE045F0030544F00204EFE745F0040581
:100A000044F00104EAE744F0100438462146FFF7B9
:100A100029FF411C15D00021316171604FF4007134
:100A2000F560F1617061200704D530460222002193
:100A300000F0E6F8306D40F0010030653046BDE86A
:100A4000F0810020FBE72DE9F0410D460646104CF1
:100A5000206DC10704D0410804D020F00104F7E75D
:100A600022460EE0542000F09CF807000ED0206DC6
:100A700047F001010843542120653846FFF794FDF3
:100A80003A4629463046BDE8F0418DE70020D6E7DA
:100A900004DE00202DE9F04704464FF000094FF036
:100AA000FF37C568D4E90486A80707D0204600F0C0
:100AB00057F93046FFF7E0FE002802DA3846BDE875
:100AC000F087280502D54046FFF724FF4C21204639
:100AD000FFF76AFD206D20F0010020654846EEE733
:100AE00010B50446AFF300802046BDE81040FFF784
:100AF000A7BB10B500F07EF9BDE8104000F074B956
:100B00000048704700DF0020704700000048704731
:100B100008DF0020704770477047704738B50446BB
:100B20000A4600206946AFF30080002808BF38BDA0
:100B300002460099204600F0A4F9012038BD0120AA
:100B400000F0F3B9F8B5AFF30080054600200C467D
:100B5000102000BF0646A819A0420DD932466946AA
:100B60000020AFF30080070008BF00F0DEF9009816
:100B7000A04218BF0546C419FFF7C8FF0560074625
:100B8000F01D20F007004619284600F073F9B44222
:100B900008BFF8BDA21B31463868BDE8F84000F038
:100BA00070B970B50646FFF7B1FF056806F10B0096
:100BB00020F00704B4429CBF002070BD2B466A6839
:100BC000BAB11068A04210D304F1080188423CBFBA
:100BD0005068586007D35168101941601168091BAB
:100BE000016058601460101D70BD13465268002AE1
:100BF000E7D121462846FFF791FF0028DED170BDDE
:100C00002DE9F041044616460D464769007B8007F2
:100C10002ED03846FFF745FE50BB3EB3012E02D022
:100C2000022E25D104E0204600F045F905441DE0E0
:100C30003846FFF744FEE168002841F01001E1600A
:100C400005DA204600F058F80120BDE8F081C9031C
:100C50000BD56268E16A914200D81146A26911443D
:100C60002269891A814200DD08460544002D01DA17
:100C70000220EAE7E16A6068E268814206D29103F5
:100C8000E06203D522F4003141F01002A66900278A
:100C9000AE4213DCE16A814201D90B4600E0034613
:100CA00003EB060C2369ACEB030CAC4506DD81427B
:100CB00001D98C4600E084469C4505D1A760276099
:100CC00042F02000A5620DE0AD1BE669AE1B81423B
:100CD000A66000D90846C01A281A2060581960601A
:100CE00022F0200003490840E060002084F84870AA
:100CF000ABE70000BFCFD7FFC16821F4001141F07E
:100D00008001C16000218160016070472DE9F047DA
:100D1000814614460E464FF0FF383248D568576971
:100D2000054209D03846A169FFF7C1FD002811DB53
:100D30002C48C0430540E5602B46324649463846BC
:100D4000FFF7A0FDA16920F00042B21A114400286B
:100D5000A16103D02046FFF7CFFF4046BDE8F087F2
:100D600070B504460569C06A6168884200D80846C3
:100D7000E16821F42011E160C90312D5A84208D02E
:100D80002246411B2846FFF7C1FF10B14FF0FF304C
:100D900070BD0020E562C4E90150E06820F48030B5
:100DA000E060002070BD10B50446C06820F020004F
:100DB000E060A16AA06988420DD02046FFF7D0FF0D
:100DC000E06820F4405040F01000E060A06AA061AC
:100DD0002069E062606044F24001E0688843E060BE
:100DE00010BD000010000200002801D000F03CB847
:100DF0007047000010B5014602A000F07DF8012008
:100E000010BD000053494752545245443A205265A0
:100E10006469726563743A2063616E2774206F7031
:100E2000656E3A200000000010B5431C02E010F887
:100E3000011B71B18107FAD14FF0013202C88C1A3F
:100E40008C4314EAC211F9D0C01A0A0603D0C01E9E
:100E500010BDC01A10BD0A0401D0801E10BD0902C9
:100E6000FCD0401E10BD000001491820ABBEFEE7BB
:100E70002600020000210160C0E901107047102027
:100E80007047034640688C46002818BF88423CBF24
:100E900003464068F8D318681844884207D00CF11C
:100EA000030020F00700001D411A521A0146081DD8
:100EB0000A60FFF72FBD10B50146C268900703D046
:100EC000900607D5886A0AE000F03EF8012101602B
:100ED000881E10BD8B69486818440B69C01A91F8C8
:100EE00048301BB191F84910401A10BD1103FCD5D0
:100EF0000028FADD401E10BD70B505460C460A20DC
:100F000000E06D1C00F018F835B128780028F8D101
:100F100002E0641C00F010F814B120780028F8D129
:100F2000BDE870400A2000F007B810B500F010F8D6
:100F3000BDE81040FFF758BF08B569468DF80000BE
:100F40000320ABBE08BD00000048704700DF002052
:100F500010B5012805D0002103A0FFF7CDFF012027
:100F600010BD09A1F8E7000053494752544D454DC3
:100F70003A204F7574206F662068656170206D653A
:100F80006D6F7279000000003A2048656170206D35
:100F9000656D6F727920636F72727570746564002D
:100FA000FEE7704772B6FEE710B5040002D0607924
:100FB00010B106E0012010BD00202071204600F095
:100FC00005F801206071002010BD000008B5006820
:100FD0000649884208D10648016841F48051016001
:100FE000006800F48050009008BD0000003002400E
:100FF000303802402DE9F84FDFF8B8A10022012473
:1010000003254FF00F090AF1040BAAF1040E00BFEB
:101010000B6804FA02F63340B34273D10F7907F03C
:101020000307012F01D0022F16D187684FEA42082B
:1010300005FA08FC27EA0C07D1F80CC00CFA08FCEA
:101040004CEA070CC0F808C04768B7430E79C6F3EE
:10105000001696403E4346600E79F643B6070DD023
:10106000C768560005FA06FC27EA0C07D1F808C045
:101070000CFA06FC4CEA070CC0F80CC00E7906F01E
:101080000306022E10D1D60800EB8608D8F820609F
:1010900057074FEAD76C09FA0CF7BE430F6907FAF6
:1010A0000CF73743C8F8207006684FEA420C05FA7F
:1010B0000CF7BE430F7907F0030707FA0CF7374325
:1010C00007604E6816F4403F6DD03B4E376847F4DA
:1010D00080473760366822F0030706F480460096A2
:1010E000364E07EB060CDCF8086897073F0F09FA45
:1010F00007F826EA0806DFF8C880404503D14FF01C
:1011000000081EE04FE0DFF8BC80404502D14FF000
:10111000010816E0DFF8B080404502D14FF0020828
:101120000FE0DFF8A880404502D14FF0030808E047
:10113000DFF89C80404502D14FF0040801E04FF0F9
:10114000070808FA07F848EA0608CCF80888DAF829
:1011500000605746D1F804C09E435FEACC2C00D50E
:101160001E433E60DBF800605F46D1F804C09E433A
:101170005FEA8C2C00D51E433E60DEF800607746A7
:10118000D1F804C09E435FEA8C3C00D51E433E600C
:10119000084F083F3E68D1F804C09E435FEACC3C4C
:1011A00000D51E433E60521C102AFFF431AFBDE84B
:1011B000F88F0000083C01404438024000300140F4
:1011C000000002400004024000080240000C0240FF
:1011D00000100240426921EA02030A4043EA024148
:1011E000816170470AB1816170470904FBE7000023
:1011F00001488068704700000C0000200B4810B5C3
:10120000016841F400710160016841F4806101608E
:10121000016841F480710160032000F061F80F2043
:1012200000F006F800F024F8002010BD003C024059
:1012300070B50D4D04464FF47A712878B1FBF0F08B
:101240000A490968B1FBF0F000F0FEFA48B9102C29
:1012500007D200222146501E00F022F800206C60C8
:1012600070BD012070BD00000C000020180000209F
:101270000A4808B5016841F480410160006800F443
:10128000804000900548001F016841F080510160D6
:10129000006800F08050009008BD00004438024013
:1012A000F0B40E4B1B680C46C3F30223C3F10705D1
:1012B000042D00D90425191D072901D2002300E0BF
:1012C000DB1E012606FA05F1491E214099409E4089
:1012D000761E16403143F0BC00F01FBD0CED00E05F
:1012E000064900F0070208684FF6FF03184040EA7D
:1012F0000220034A10430860704700000CED00E034
:101300000000FA052DE9F0470E46050065D0DFF82C
:101310001481D8F80000F7B200F00700B04207D2FD
:1013200088F80070D8F8000000F00700B04254D1EF
:1013300028683D4C810712D5400703D5206840F44A
:10134000E05020602878000703D5206840F4604012
:1013500020602068A96820F0F00008432060287809
:10136000C0072DD0304968680839012812D00228FA
:1013700013D0032811D00968890700292DDA2168C4
:1013800021F0030101432160FFF732FF814641F262
:10139000883A0EE009688903EFE709688901ECE7FC
:1013A000FFF726FFA0EB0901514502D90320BDE854
:1013B000F0872068696800F00C00B0EB810FEFD176
:1013C000D8F80010404601F00701B14207D9077074
:1013D000006800F00700B04201D00120E7E728785C
:1013E000400705D52068E96820F4E05008432060F4
:1013F0002878000706D52068296920F4604040EA73
:10140000C100206000F038F82168084AC1F30311D8
:10141000515CC8400649086006480068FFF708FFAD
:101420000020C4E7003C0240083802407A2F000840
:1014300018000020100000200448054900680968D1
:10144000044AC1F38221515CC84070471800002053
:10145000083802408A2F00080448054900680968D6
:10146000044AC1F34231515CC84070471800002063
:10147000083802408A2F0008154810B5006810F09F
:101480000C02144813D01449042A0FD0082A0ED194
:101490000F4C241F2268236802F03F025B0207D52D
:1014A0002068C0F38810A0FB010106E0084610BDCB
:1014B0002168C1F38811A1FB00010023FEF746FF5C
:1014C0002168C1F30141491C4900B0FBF1F010BD96
:1014D000083802400024F40040787D012DE9F84FDF
:1014E00004006ED02078DFF84C93C007A9F1040502
:1014F0004AD009F104000168C1F38101012908D033
:101500000068C0F3810002280AD1D9F80000400227
:1015100006D52868800337D560680028E1D033E01D
:101520006068B0F5803F10D0B0F5A02F286810D0CB
:1015300020F480302860286820F4802028606068CB
:10154000A8B1FFF755FE06460DE0286840F480304C
:10155000F4E740F480202860F7E700BFFFF748FE7B
:10156000801B642873D828688003F7D50CE0FFF748
:101570003FFE064605E000BFFFF73AFE801B6428E9
:10158000F0D828688003F7D42078DFF8AC82800791
:101590004FF0000A3ED5A748001D016811F00C0F5E
:1015A00008D00068C0F3810002280BD1D9F80000F0
:1015B000400207D42868800716D5E068012800D1CA
:1015C00012E033E1E068B8B10120C8F80000FFF78D
:1015D0000FFE064605E000BFFFF70AFE801B02284B
:1015E000C0D828688007F7D52868216920F0F8005E
:1015F00040EAC10028600DE0C8F800A0FFF7F8FD40
:10160000064604E0FFF7F4FD801B02281FD8286877
:101610008007F7D42078000722D5864F8748616974
:10162000703771B101210160FFF7E2FD064604E069
:10163000FFF7DEFD801B022809D838688007F7D540
:101640000EE0C0F800A0FFF7D3FD064605E082E0FB
:10165000FFF7CEFD801B02287DD838688007F7D4BD
:101660002078400768D5DFF8CCB100270BF13C0BA0
:10167000DBF80000C0000BD4DBF8001041F0805113
:10168000CBF80010DBF80000012700F0805000903C
:101690006B4E3068C00510D4306840F48070306004
:1016A000FFF7A6FD009005E0FFF7A2FD0099401AA4
:1016B000022850D83068C005F6D55E4EA0686C365A
:1016C00001280FD00528306810D020F001003060CC
:1016D000306820F004003060A068B8B1FFF788FDE2
:1016E00000900FE0306840F00100F4E740F00400A3
:1016F0003060F7E7FFF77CFD0099411A41F288302E
:10170000814266D830688007F4D50EE0FFF770FD9F
:10171000009007E0FFF76CFD0099411A41F2883014
:10172000814256D830688007F4D42FB1DBF800101E
:1017300021F08051CBF80010A069C8B33D49091DC4
:101740000968C1F3810102294AD00228504607D016
:10175000C8F8600000E03CE0FFF74AFD04463BE0CB
:101760004746C8F86000FFF743FD064605E000BFA6
:10177000FFF73EFD801B02282BD828688001F7D494
:10178000D4E907010843A16A2E4A490802EB014146
:10179000626A41EA8211084394F82C1040EA016120
:1017A000C9F8001001203866FFF722FD044606E064
:1017B0003EE000BFFFF71CFD001B022809D8286887
:1017C0008001F7D534E000BFFFF712FD001B0228AF
:1017D00002D90320BDE8F88F28688001F4D427E0FF
:1017E0000128F7D0D9F80000E26900F480019142A5
:1017F0001CD1226A00F03F01914217D147F6C07117
:10180000626A0140B1EB821F10D1A26A4FF0FF3330
:1018100000F4403103EB5202B1EB024F06D194F8D1
:101820002C1000F07060B0EB016F01D00120D1E707
:101830000020CFE70438024000004742800E4742B4
:10184000007000400000FFFF10B5401EB0F1807F27
:1018500001D3012010BD4FF0E02460610F2160171B
:1018600000F05BFA0020A06107202061002010BD7D
:1018700070B5040004D094F83D00002510B106E0D6
:10188000012070BD84F83C50204600F023F824204D
:1018900084F83D002068C16821F40051C1602046F1
:1018A00000F078F92068016921F490410161206815
:1018B000416921F02A0141612068C16841F4005169
:1018C000C1602564202084F83D0084F83E0000209B
:1018D00070BD000010B586B0044614216846FEF7BE
:1018E00063FE14492068884221D113480021026810
:1018F00042F010020260006800F0100005900E48EF
:101900001438026842F001020260006800F0010031
:1019100005904FF4C06000900220CDE90101032042
:1019200003900720049069460448FFF763FB06B064
:1019300010BD000000100140443802400000024089
:101940002DE9F843044690F83D001F4616460D4623
:1019500020284CD1C5B1BEB194F83C00012846D036
:10196000012084F83C004FF00008C4F8408021209A
:1019700084F83D00FFF73CFCA6848146E684A0681D
:10198000B0F5805F03D004E00120BDE8F883206952
:1019900028B12E465FF0000584F83C800EE000265A
:1019A000FAE78021204600F07BF9A0B9AEB116F825
:1019B000010B21684860E08C401EE084E08C4B46BF
:1019C0004FF0000200970028EBD14FF04001204675
:1019D00000F066F930B10320D7E735F8020BC0F309
:1019E0000800E6E7202084F83D000020CDE7022033
:1019F000CBE7FEE7074910B5054808600846FFF742
:101A0000D3FA002803D0BDE81040FFF7CBBA10BDD1
:101A1000003002400400002070B586B014216846F2
:101A2000FEF7C2FD16480024016841F00401016080
:101A3000016801F004010591016841F08001016035
:101A4000016801F080010591016841F00101016028
:101A500000680C4E00F001004FF400550590002284
:101A600029463046FFF7BEFB01200095CDE9010471
:101A7000694630460394FFF7BDFA06B070BD00001A
:101A800030380240000802400C4810B50A49016095
:101A90004FF4E1314160002181600C22C160C0E956
:101AA00004128161C161FFF7E3FE002803D0BDE8A5
:101AB0001040FFF777BA10BD0010014090000020E1
:101AC000FEE7FEE710B5502080F31188BFF34F8F7B
:101AD000BFF36F8F01F0AAF818B104494FF080509E
:101AE0000860002080F3118810BD000004ED00E0C4
:101AF00030B593B030216846FEF756FD14210CA88E
:101B0000FEF752FD1D480024016841F0805101603C
:101B1000006800F0805011901948016821F440419C
:101B200041F4004101600068022500F4404011903A
:101B30000120039010200490009506950820CDE91F
:101B400007405420CDE9090504200B906846FFF7B3
:101B5000C5FC08B172B6FEE70F20CDE90C054FF4C5
:101B60008050CDE90E4002210CA81094FFF7CAFB6B
:101B7000002801D072B6FEE713B030BD40380240F5
:101B8000007000400248016841F470010160704734
:101B900088ED00E070B5044600680169E26821F450
:101BA0004051114301612169A068E26908436169FC
:101BB000114308432168CA6849F20C639A430243FF
:101BC000CA6020684169A26921F4407111434161F2
:101BD00031492068884202D03049884202D1FFF75B
:101BE0003BFC01E0FFF728FCE26900231921642592
:101BF0003226B2F5004F626828D0A0FB0101930F96
:101C00009200FEF7A3FB0146B0FBF5F06FF018025F
:101C1000504301EB800006EB0010B0FBF5F000F044
:101C2000F002B1FBF5F002EB0012B1FBF5F06FF042
:101C30001803584301EB800006EB0010B0FBF5F0F1
:101C400000F00F0021681044886070BDA0FB010106
:101C500092185B41FEF77AFB0146B0FBF5F00201FA
:101C6000B1FBF5F06FF01803584301EB800006EB71
:101C7000C000B0FBF5F000F0F80002EB4002B1FB51
:101C8000F5F0584301EB800006EBC000B0FBF5F027
:101C900000F00700D6E700000010014000140140EA
:101CA0002DE9F041984617460E460446069D27E06A
:101CB000681C25D02DB1FFF79BFAA0EB0800A842C5
:101CC0001ED920680C3050E8001F21F4D07140E884
:101CD0000012002AF5D12068143050E8001F21F0CE
:101CE000010140E80012002AF5D1202084F83D00CF
:101CF00084F83E00002084F83C000320BDE8F08119
:101D00002068006836EA000004D00020B842CFD036
:101D10000020F3E70120F9E7FEE70907090E002894
:101D200004DB00F1E02080F80014704700F00F00A1
:101D300000F1E02080F8141D7047000013B54FF04B
:101D4000FF33012269460248FFF7FAFD00981CBDE7
:101D5000900000201CB5FFF751FAFFF7C9FEFFF70E
:101D60005BFEFFF747FEFFF78FFE0B480224CDE92D
:101D700000400023802209A10B4800F017FF00203B
:101D8000CDE900400346802208A10B4800F00EFF79
:101D900000F0D8FCFEE70000000000205461736BE7
:101DA000206C656400000000652400085461736BBA
:101DB0002075617274000000852400082DE9F0414F
:101DC0001E4C0F460546E6682068001D00F070FBBB
:101DD00038B9206890F82C1001208840216981438F
:101DE0002161681C15D1A7B1154922684868906027
:101DF00023688268DA6022688368121D5A6022684C
:101E0000121D8260206841610868401C0860BDE8BE
:101E1000F08120683544B5424560216805D2E06B09
:101E2000BDE8F041091D00F064BBA06B091D00F086
:101E300060FBA06A8542EAD2A562E8E71C000020A8
:101E4000C80100202DE9F041054600F06BFB304C45
:101E5000A068401CA06020682E4F10B1606940B39C
:101E60002DE02560A068012829D1002606EB860018
:101E700007EB800000F02FFB761C052EF6D32548DB
:101E8000643000F028FB2348783000F024FB214820
:101E90008C3000F020FB1F48A03000F01CFB1D48D8
:101EA000B43000F018FB1B486430A0631430E063CA
:101EB00005E02068E96AC06A884200D82560606A47
:101EC0000121401C60622864E86A22698140114354
:101ED000216100EB800007EB80004068A86081680A
:101EE000E9608268291D51608160E86A00EB80002A
:101EF00007EB8001696157F82010491C47F8201052
:101F000000F030FB6069002800D02068BDE8F08157
:101F10001C0000201401002010B500F003FB0E4C43
:101F20002068A0B90D4800F0D6FA0C48143000F033
:101F3000D2FA0A48E0601430206100220C210A2005
:101F400000F0E8FC206010B105A100F03DFBBDE809
:101F5000104000F007BB00005C000020DC01002006
:101F6000546D72510000000030B4026C0B46002A20
:101F70000BD0C1681144C1608468A14201D30168DB
:101F8000C16030BC1846FEF7C2BA30BC704710B50D
:101F90000446006B00F0FAFA2046BDE8104000F05D
:101FA000F5BA0000114E124C4FF08057DFF8448014
:101FB00012E000BF00F0B6FAF068C568281D00F016
:101FC00077FAA068401EA0606068401E606000F064
:101FD000C9FA2846FFF7DBFF60680028EAD1C8F895
:101FE0000070BFF34F8FBFF36F8FF5E7B401002090
:101FF0001C00002004ED00E02DE9F05F8846DDE9DB
:102000000B941546834691009A460A9EA522206BA2
:10201000FEF7C2FA6FF00301206B01EB8501084463
:1020200020F00707780707D0502080F31188BFF30E
:102030004F8FBFF36F8FFEE70025B8F1000F0FD071
:102040005FF00000221818F8001082F8341018F819
:10205000001011B1401C0A28F4D384F83D5001E06F
:1020600084F83450052E07D3502080F31188BFF335
:102070004F8FBFF36F8FFEE7E662C4E91265201D44
:1020800000F034FA04F1180000F030FA2461C6F1CF
:1020900005006462A061256584F854505246594693
:1020A000384600F0C9F92060B9F1000F01D0C9F835
:1020B0000040BDE8F09F000070B5002441600B4D6A
:1020C0000061914206D8D11A8269914206D2011D5F
:1020D000286907E09A4203D2994201D3012403E020
:1020E000011DE86800F005FA204670BD5C00002084
:1020F00010B5044600F016FAA06B28B15FF000049A
:1021000000F030FA204610BD0124F9E770B506460C
:102110000D480D46C068C068C468201D00F0C8F9AD
:1021200094F82800410705D52A463146204600F09C
:10213000B5F803E000F0FE0084F828002046216A8C
:10214000BDE87040084700005C0000207FB5374EB6
:1021500063E00098002860DB029C606910B1201DDC
:1021600000F0A6F903A800F0BBF8054600980A287D
:1021700053D2DFE800F0520505282E460505282E2B
:1021800094F828002A4640F0010084F828000199BC
:10219000A069019B01442046FFF78EFF40B394F8ED
:1021A0002800410707D50198A1692A460144204625
:1021B00000F074F803E000F0FE0084F82800216AC3
:1021C0002046884729E014F8280F00F0FE00207010
:1021D00023E094F8280040F0010084F828000198DA
:1021E000A06130B141192B461A462046FFF764FF23
:1021F00013E0502080F31188BFF34F8FBFF36F8F30
:10220000FEE794F82800810703D4204600F0BEF9C9
:1022100003E000F0FE0084F82800002269463068E0
:1022200000F0F4FB002894D17FBD00005C0000208A
:10223000F8B50D46064600F0BDFA684600F050F8C5
:102240000446009810B100F0E5FDF8BD1148ADB1AD
:1022500001690968D9B10025311B2A46006800F0E0
:10226000DBF900F0D7FD0028EFD10B494FF080508B
:102270000860BFF34F8FBFF36F8FF8BDA642EBD856
:1022800000F0C8FD21463046FFF740FFF8BD0125AC
:10229000E2E700005C00002004ED00E070B51646A7
:1022A0000C46054604E0A869296A04442846884784
:1022B000A8692346011932462846FFF7FDFE00288B
:1022C000F1D170BD0548816B096821B1816BC96886
:1022D0000968816270474FF0FF31FAE71C00002067
:1022E0002DE9F041064600F09BFC0E4C0546A06827
:1022F000854214D24FF0FF3704E0C06839460068C9
:10230000FFF704FFE06801680029F6D12169C4E9FC
:102310000310012030602846A560BDE8F081002050
:10232000F8E700005C00002008484068401C4FF0BF
:10233000500080F3118804D0BFF34F8FBFF36F8F2D
:10234000FEE7BFF34F8FBFF36F8FFEE770000020F3
:10235000074CE068016841B1C0680021D0F8000076
:10236000FFF766FFFFF7F2FEF3E701210020F7E732
:102370005C0000202DE9F041044600F0D3F894F908
:10238000455004F1240609E0606A48B1304600F087
:10239000D3FC08B100F090F96D1E6DB2002DF3DC96
:1023A0004FF0FF3684F8456000F0DCF800F0BAF832
:1023B00094F9445004F1100709E0206948B1384607
:1023C00000F0BAFC08B100F077F96D1E6DB2002D77
:1023D000F3DC84F84460BDE8F04100F0C3B80000CD
:1023E00070B504460025400709D004F00700C0F18D
:1023F00008002044A04201D9044600E0002400F077
:10240000D9F90B48416819B90A4921F0070141601F
:1024100054B102684DF6F8331119994204D2914231
:1024200002D9436801609D1800F0F4FC284670BD95
:102430007C0000200B02002010B5031F4FF08074B9
:102440001C601B1F21F001011960191F044B0B6058
:1024500014390A60091F6FF0020244380A6010BD87
:1024600029230008064D4FF400544FF49676214678
:102470002846FEF7AFFE304600F0F0F8F7E7000020
:10248000000802404FF49674204600F0E7F841221D
:10249000612102A0FDF7D2FFF6E7000043686172F8
:1024A0006163746572733A2025632025630A000016
:1024B000D0E9013201699A60D0E901235A604A6883
:1024C000824201D182684A60002202610868401E8F
:1024D00008600868704700F108014FF0FF32C0E95A
:1024E0000112C1600161002101607047002101619A
:1024F000704730B50B685A1C02D000F1080202E0A8
:10250000026904E02246546825689D42FAD953685E
:102510004B6099608A60516008610168491C0160E4
:1025200030BD0000502080F31188BFF34F8FBFF300
:102530006F8F0A494868401C486001280CD1084840
:10254000006810F0FF0F07D0502080F31188BFF310
:102550004F8FBFF36F8FFEE77047000070000020C1
:1025600004ED00E00849486828B1401E486001D1E8
:1025700080F311887047502080F31188BFF34F8F8C
:10258000BFF36F8FFEE7000070000020002807D027
:10259000502080F31188BFF34F8FBFF36F8FFEE79A
:1025A000704700004FF0E020002101618161054982
:1025B0004FF47A720968B1FBF2F1491E41610721BB
:1025C000016170471800002070B568B10022002931
:1025D0001ED0104C002300BF04EBC3056E6886427A
:1025E0000AD104EBC3020FE0502080F31188BFF33F
:1025F0004F8FBFF36F8FFEE71AB954F8336006B9F7
:102600002A465B1C082BE7D3002A01D0C2E9001040
:1026100070BD0000D400002070B515460E4604467B
:10262000FFF780FF94F944100020491C01D184F881
:10263000440094F94510491C01D184F84500FFF786
:1026400091FFA06B28B92A46314604F1240000F01E
:1026500051F82046BDE87040FFF78CBE10B502006F
:1026600014D00F48406B38B1502080F31188BFF36D
:102670004F8FBFF36F8FFEE700F09CF800211046EC
:10268000FFF79CFB00F0C6FB002807D105494FF07F
:1026900080500860BFF34F8FBFF36F8F10BD0000F5
:1026A0001C00002004ED00E002490A6A0260C968CB
:1026B000416070471C00002001490120C86170473B
:1026C0001C00002010B50C4650B1094909681831AA
:1026D000FFF70FFF2046BDE810400121FFF76EBB5A
:1026E000502080F31188BFF34F8FBFF36F8FFEE749
:1026F0001C000020F0B40C46D0B1114943680D68AD
:10270000EB619D680E6835620D689E6818357560CE
:102710000D6818359D60096888620168491C016070
:102720000AB14FF0FF342046F0BC1146FFF746BB1C
:10273000502080F31188BFF34F8FBFF36F8FFEE7F8
:102740001C0000207CB517480025CDE900502B4621
:10275000822215A1164800F029FA124C2C3C0128BF
:1027600003D100F0DFFB012802D0401C11D00EE0A5
:10277000502080F31188BFF34F8FBFF36F8F4FF05E
:10278000FF30A06201206061E56000F049F8206B35
:102790007CBD502080F31188BFF34F8FBFF36F8F44
:1027A000FEE700004800002049444C4500000000BE
:1027B000A51F00080248416B491C41637047000097
:1027C0001C0000201448416B11B10121C161704708
:1027D0000021C1610169B1FA81F1C1F11F0101EB71
:1027E00081020E4951F822306BB101EB820101F1F7
:1027F00008034A6852684A609A4201D152684A60A6
:10280000D16801607047502080F31188BFF34F8F6B
:10281000BFF36F8FFEE700001C00002014010020B2
:102820001CB537480168374A914207D1502080F3E0
:102830001188BFF34F8FBFF36F8FFEE700683149F8
:10284000491E884207D1502080F31188BFF34F8F73
:10285000BFF36F8FFEE72C4908780190FF200870C6
:1028600008788DF800009DF800009DF8002000F029
:10287000F000904207D0502080F31188BFF34F8FB3
:10288000BFF36F8FFEE79DF80000204C00F0500072
:1028900020700720A06005E09DF8002052008DF810
:1028A0000020401E9DF800201206F5D4A0600328E9
:1028B00007D0502080F31188BFF34F8FBFF36F8F85
:1028C000FEE74FF44070A060019808700C4820307B
:1028D000016841F470010160016841F070410160DC
:1028E000FFF760FE00206060FDF7D4FC0848016837
:1028F00041F040410160FDF7B9FC00201CBD000023
:1029000000ED00E071C20F4100E400E07000002023
:1029100034EF00E02DE9F04117460E46050020D0C7
:102920004FF0FF30B0FBF5F0B0421AD305FB06F0D4
:1029300010F1510F15D85030FFF752FD04000CD0A4
:1029400004F150005EB12060C4E90F562046012119
:1029500000F010F8204684F84C70BDE8F081246047
:10296000F2E7502080F31188BFF34F8FBFF36F8FD2
:10297000FEE700002DE9F0410F4604004FF001068C
:102980002DD0E06B98B3B51EB5FBF0F1206C814201
:1029900034D3FFF7C7FDD4E90F20216802FB0011F3
:1029A000A1600021A163216861600A46D4E90F019A
:1029B000401E00FB01212046E16000F8445F4570A5
:1029C00004F11000A7B1FFF786FD04F12400FFF722
:1029D00082FD00BFFFF7C6FD3046BDE8F081502004
:1029E00080F31188BFF34F8FBFF36F8FFEE705E0D1
:1029F00021690029EED000F09FF9EBE7502080F329
:102A00001188BFF34F8FBFF36F8FFEE72DE9F741BA
:102A1000002683B08846040003D0B8F1000F08D028
:102A200011E0502080F31188BFF34F8FBFF36F8FF9
:102A3000FEE7206C38B1502080F31188BFF34F8F30
:102A4000BFF36F8FFEE700F0DDF8002748B9059867
:102A500038B1502080F31188BFF34F8FBFF36F8FD1
:102A6000FEE7FFF75FFDA56B8DB141462046FFF7FE
:102A70007BFA6D1EA563206918B104F1100000F007
:102A80005BF9FFF76FFD012006B0BDE8F081059806
:102A900008B11EB106E0FFF765FD27E06846FFF7C5
:102AA00003FE0126FFF75EFDFFF784FEFFF73AFD08
:102AB00094F94400401C01D184F8447094F9450015
:102AC000401C01D184F84570FFF74CFD05A968460C
:102AD00000F02EF8002820460AD0FFF74BFC00F04B
:102AE00099F92046FFF704FB0028BAD00020CBE775
:102AF000FFF7FEFAA0B104F124000599FFF7E2FD0B
:102B00002046FFF737FC00F085F90028A9D10749D6
:102B10004FF080500860BFF34F8FBFF36F8FA0E777
:102B20002046FFF727FC00F075F99AE704ED00E076
:102B30002DE9F0410C46050014D0DCB1FFF7F2FCA2
:102B4000194EF2686B682068D11A471C1AD02F689A
:102B5000D6F820C00026674516D0934214D8012528
:102B600026601BE0502080F31188BFF34F8FBFF326
:102B70006F8FFEE7502080F31188BFF34F8FBFF3B4
:102B80006F8FFEE7002509E0884205D9401A2060D2
:102B90002846FFF789FDF5E701252660FFF7E2FCEF
:102BA0002846BDE8F08100001C0000202DE9FF5FF1
:102BB0008346DDE90E87994616468A469000FFF760
:102BC0000FFC05001AD05820FFF70AFC040012D0B1
:102BD00025630021CDE90241CDE900874B4632460D
:102BE00051465846FFF708FA2046FFF72BF9012017
:102BF00004B0BDE8F09F2846FFF7C8FC4FF0FF3057
:102C0000F6E700000548416919B1406B18B1002092
:102C10007047012070470220704700001C00002010
:102C20000148C068704700001C0000202DE9F041F9
:102C30003F4C0026606B28B1A069401CA061304663
:102C4000BDE8F081E5686D1CE56013D1A06B0068FC
:102C500038B1502080F31188BFF34F8FBFF36F8FCF
:102C6000FEE7A06BE16BA163E063206A401C206279
:102C7000FFF728FBA06A8542E1D30023A06B006820
:102C800038B1A06BC068C1684868854204D2A062B0
:102C9000D5E74FF0FF30FAE7D1E90227486997609E
:102CA000D1E902277A6047680A1D974201D1CF68AF
:102CB00047604B6107687F1E0760886A98B1D1E959
:102CC000077CC7F808C0D1E9077CCCF80470D0F8BD
:102CD00004C001F11807BC4501D10F6A47608B623F
:102CE00007687F1E0760CF6A0120D4F810C0B84083
:102CF00040EA0C00206107EB87000E4F07EB8000D5
:102D000040688860D0F808C0C1F80CC0D0F808C08E
:102D1000CCF804208260C86A00EB800007EB8002D8
:102D20004A6157F82010491C47F82010A6E7000018
:102D30001C0000201401002070B5C068C06850B3AA
:102D4000D0E90732816A9A60D0E907235A604A685D
:102D500000F118039A4201D1026A4A600025856297
:102D60000A68521E0A6029494A6B0124DAB1284DCB
:102D70006A68C2619668066296687360936085624D
:102D80002A68521C2A60C06A0A68D26A90423AD9FC
:102D90000120CC6170BD502080F31188BFF34F8FAC
:102DA000BFF36F8FFEE7D0E902634269B360D0E9F9
:102DB000023673605668031D9E4201D1C668566094
:102DC000456115686D1E1560C26A0E6904FA02F548
:102DD00035430D610E4D02EB82028C3D05EB820204
:102DE000526882609668C660966873609360C26A33
:102DF00002EB820205EB8203436155F822305B1C33
:102E000045F82230BFE7002070BD00001C00002004
:102E1000A00100202DE9F041404D0024A046686B40
:102E200038B1FFF77FFB686B401E6863686B40B189
:102E30006EE0502080F31188BFF34F8FBFF36F8F88
:102E4000FEE7A8680027364B0126E0BB60E0D868A3
:102E5000C468D4E90721A06A9160D4E907125160DF
:102E6000426804F118018A4201D1216A4160A762D7
:102E70000168491E0160D4E9022160699160D4E9CA
:102E8000021251604268211D8A4201D1E26842600B
:102E900067610268521E0260E26AD5F810C006FA45
:102EA00002F040EA0C00286102EB82001C4A8C3AD6
:102EB00002EB80004068A060D0F808C0C4F80CC0E5
:102EC000D0F808C000E013E0CCF804108160E06A9C
:102ED00000EB800002EB8001616152F82010491C78
:102EE00042F82010E06A2968C96A884200D3EE617E
:102EF00018680028ABD10CB1FFF7E4F9AC6934B124
:102F0000FFF794FE00B1EE61641EF9D1AF61E8698C
:102F1000FFF728FB4046BDE8F08100001C000020C0
:102F2000A00100201CB5FEF7F7FF0D48006868B14E
:102F30000B490220091DCDE9000100234FF48272E4
:102F400008A10A48FFF732FE002807D1502080F37D
:102F50001188BFF34F8FBFF36F8FFEE71CBD0000DA
:102F60005C000020546D72205376630051230008EA
:102F70004FF04070E1EE100A7047000000000000C2
:102F80000000010203040607080900000000010216
:102F900003043A7474003A7474003A7474000000C4
:102FA000C02F00080000002090000000D0010008A1
:102FB0005030000890000020D0E40000EC01000830
:102FC0000000000000000000000000000100000000
:102FD00010000000000000000024F40000000000C9
:102FE00000000000000000000000000000000000E1
:102FF00000000000000000000000000000000000D1
:1030000000000000000000000000000004000000BC
:1030100000000000000000000000000000000000B0
:1030200000000000000000000000000000000000A0
:1030300000000000AAAAAAAA0000000000000000E8
:103040000000000000000000000000000000000080
:040000050800019559
:00000001FF
