:020000040800F2
:10000000D84C002019020008171700086B160008CA
:10001000151700087D0C00089D180008000000005E
:100020000000000000000000000000001B17000896
:100030007F0C000800000000191700081D170008B9
:1000400033020008330200083302000833020008BC
:1000500033020008330200083302000833020008AC
:10006000330200083302000833020008330200089C
:10007000330200083302000833020008330200088C
:10008000330200083302000833020008330200087C
:10009000330200083302000833020008330200086C
:1000A000330200083302000833020008330200085C
:1000B000330200083302000833020008330200084C
:1000C000330200083302000833020008330200083C
:1000D000330200083302000833020008330200082C
:1000E00033020008330200083302000800F002F86F
:1000F00000F047F80AA090E8000C82448344AAF17B
:100100000107DA4501D100F03CF8AFF2090EBAE878
:100110000F0013F0010F18BFFB1A43F0010318473B
:10012000941E0000B41E0000103A24BF78C878C1A5
:10013000FAD8520724BF30C830C144BF04680C60ED
:10014000704700000023002400250026103A28BF35
:1001500078C1FBD8520728BF30C148BF0B60704739
:10016000632900F01681002070471FB59DE8030049
:1001700000F056FB00F048F91FBD10B500F0ADF9D6
:1001800010BD00F010FA1146FFF7EFFF01F0A4FBDD
:1001900000F014FB03B4FFF7F0FF03BC00F0D2FC47
:1001A000084B19680868203080F30988022080F322
:1001B0001488BFF36F8F3FBCAE4608BC04BC62B668
:1001C0001847000014000020EFF3108072B670474B
:1001D00080F310887047EFF309800E4B1A682038BF
:1001E0001060F0C044464D4656465F46F0C008B524
:1001F00072B601F051FD62B60CBC1168086810308F
:10020000F0C8A046A946B246BB4680F3098820380C
:10021000F0C81847140000200948804709480047E3
:10022000FEE7FEE7FEE7FEE7FEE7FEE7FEE7FEE7A6
:10023000FEE7FEE704480549054A064B7047000003
:100240007F170008ED000008D8460020D84C002099
:10025000D8480020D84800200FB4044910B503AA9C
:10026000029800F0A3F810BC5DF814FBCC45002008
:100270002DE9F0410E460446002020622046E16848
:10028000884730B3252805D0D4E901219047206A5A
:10029000401CF2E7E168204600278847050018D097
:1002A000A5F14100192802D820354FF400673246E5
:1002B000294620462760FFF753FF40B1012804D0AC
:1002C000F61D26F007060836D8E7361DD6E728467D
:1002D000DAE7206ABDE8F08170B50C460546012AD0
:1002E00005D02878800600D5EA69002302E00123C2
:1002F00005E05B1C934202D2E05C0028F9D1A869BA
:10030000E618C01AA861286A184428622846AFF384
:10031000008004E0D5E9012114F8010B9047B442B4
:10032000F8D32846AFF3008070BD4FF0000200B54F
:10033000134694469646203922BFA0E80C50A0E808
:100340000C50B1F12001BFF4F7AF090728BFA0E8B6
:100350000C5048BF0CC05DF804EB890028BF40F882
:10036000042B08BF704748BF20F8022B11F0804FC4
:1003700018BF00F8012B704770477047704710B5E1
:10038000436913B1AFF3008001E0FFF7A5FF01203F
:1003900010BD127800F124010A7000224A70012277
:1003A000EDE711684FF0FF32E9E70000074B70B549
:1003B0000D467B4400F011F80446284600F020F872
:1003C00010B14FF0FF3070BD204670BD0B1500001E
:1003D00001694A1C02610878704700B58FB0CDE909
:1003E00001310021059105497944CDE903101146F9
:1003F0006846FFF73DFF0FB000BD0000E5FFFFFFBF
:10040000007B00F08000704710B542485421FFF790
:100410008CFF41485421FFF788FF40485421FFF7E3
:1004200084FF3F493B483C4A3F4B08603D490A60D6
:100430003A491960531C0365481C10650120086582
:100440003B48344A39A1784400F01CF920B93848B7
:1004500078440A3800F0BBF937482F4A35A1784470
:1004600000F010F920B9344878440A3800F0AFF9A8
:1004700032482A4A2FA1784400F004F920B92F48C5
:1004800078440A3800F0A3F940232248DC00002118
:10049000224600F0D4F820B125487844543800F0C2
:1004A00096F91D4822464023002100F0C8F820B1EB
:1004B00021487844543800F08AF91848224610231D
:1004C000002100F0BCF8002806D01C487844BDE8A4
:1004D0001040563800F07BB910BD104870B5006D63
:1004E00020F001040B4800F043F90B4800F040F9FC
:1004F0000A4800F03DF909E0206D20F00105204692
:1005000000F036F9204600F073F82C46002CF3D1A9
:1005100070BD000078450020CC450020204600201A
:1005200060000020640000206800002072000000CD
:100530005E1B0000770000004A1B0000361B000015
:100540000EB5CDE9000100F0DDFA02906946012008
:10055000ABBE0EBD08B5694600900220ABBE08BD1B
:100560001FB58DE8070069460520ABBE04B010BD7D
:100570001FB58DE80F0069460620ABBEF6E708B54B
:10058000694600900920ABBE08BD1CB5CDE900014D
:1005900069460A20ABBE1CBD704708B5694600908D
:1005A0000C20ABBE08BD754600F018F9AE4605003C
:1005B0006946534620F00700854618B020B5FFF77E
:1005C00039FEBDE820404FF000064FF000074FF025
:1005D00000084FF0000B21F00701AC46ACE8C00961
:1005E000ACE8C009ACE8C009ACE8C0098D4670476A
:1005F00070B50446051F00F0F7F80068002C14BF22
:10060000446870BD002C18BFAC423CBF20466468F3
:10061000F8D301680A18AA4218BF456003D12A68B6
:1006200005461144016028684119A1421CBF6C6055
:1006300070BD6168696021680844286070BD70B54C
:10064000C468A50713D0650211D4B2F5807F09D024
:10065000B2F5007F06D0B2F5806F08D1012300F11A
:10066000240106E05D1E6FF07F46B54201D30120F4
:1006700070BD0161C361416024F470611143C160C8
:10068000002070BD2DE9F0410C4607461646104685
:1006900000F06EF82078611C61280AD0722802D020
:1006A00077283CD102E00125002405E0022504243E
:1006B00002E0082448F2020511F8010B2B2806D0AD
:1006C000622809D011F8010C74280AD00BE045F01B
:1006D000030544F00204EFE745F0040544F001048B
:1006E000EAE744F0100438462146FFF729FF411C91
:1006F00015D00021316171604FF40071F560F16136
:100700007061200704D530460222002100F0E6F88F
:10071000306D40F0010030653046BDE8F0810020CA
:10072000FBE72DE9F0410D460646104C206DC10750
:1007300004D0410804D020F00104F7E722460EE07F
:10074000542000F09CF807000ED0206D47F0010106
:100750000843542120653846FFF7E7FD3A4629460D
:100760003046BDE8F0418DE70020D6E7784500200F
:100770002DE9F04704464FF000094FF0FF37C568F8
:10078000D4E90486A80707D0204600F057F9304680
:10079000FFF7E0FE002802DA3846BDE8F0872805BA
:1007A00002D54046FFF724FF4C212046FFF7BDFD50
:1007B000206D20F0010020654846EEE710B50446A4
:1007C000AFF300802046BDE81040FFF7E3BC10B552
:1007D00000F07EF9BDE8104000F074B900487047A1
:1007E0007446002070470000004870477C46002097
:1007F000704770477047704738B504460A46002076
:100800006946AFF30080002808BF38BD0246009952
:10081000204600F0A4F9012038BD012000F0F3B912
:10082000F8B5AFF30080054600200C46102000BF4D
:100830000646A819A0420DD9324669460020AFF3FA
:100840000080070008BF00F0DEF90098A04218BF42
:100850000546C419FFF7C8FF05600746F01D20F0E4
:1008600007004619284600F073F9B44208BFF8BDE6
:10087000A21B31463868BDE8F84000F070B970B589
:100880000646FFF7B1FF056806F10B0020F00704EC
:10089000B4429CBF002070BD2B466A68BAB1106894
:1008A000A04210D304F1080188423CBF5068586050
:1008B00007D35168101941601168091B0160586025
:1008C0001460101D70BD13465268002AE7D12146FE
:1008D0002846FFF791FF0028DED170BD2DE9F041D9
:1008E000044616460D464769007B80072ED03846E1
:1008F000FFF745FE50BB3EB3012E02D0022E25D19C
:1009000004E0204600F045F905441DE03846FFF7B5
:1009100044FEE168002841F01001E16005DA20465C
:1009200000F058F80120BDE8F081C9030BD56268DA
:10093000E16A914200D81146A26911442269891ADC
:10094000814200DD08460544002D01DA0220EAE775
:10095000E16A6068E268814206D29103E06203D5F1
:1009600022F4003141F01002A6690027AE4213DCE8
:10097000E16A814201D90B4600E0034603EB060C15
:100980002369ACEB030CAC4506DD814201D98C46F2
:1009900000E084469C4505D1A760276042F0200016
:1009A000A5620DE0AD1BE669AE1B8142A66000D9D1
:1009B0000846C01A281A20605819606022F02000EA
:1009C00003490840E060002084F84870ABE700006D
:1009D000BFCFD7FFC16821F4001141F08001C16091
:1009E00000218160016070472DE9F047814614467F
:1009F0000E464FF0FF383248D5685769054209D096
:100A00003846A169FFF7C1FD002811DB2C48C0431F
:100A10000540E5602B46324649463846FFF7A0FDC3
:100A2000A16920F00042B21A11440028A16103D04C
:100A30002046FFF7CFFF4046BDE8F08770B504467B
:100A40000569C06A6168884200D80846E16821F4F7
:100A50002011E160C90312D5A84208D02246411BEB
:100A60002846FFF7C1FF10B14FF0FF3070BD0020E6
:100A7000E562C4E90150E06820F48030E0600020C5
:100A800070BD10B50446C06820F02000E060A16A87
:100A9000A06988420DD02046FFF7D0FFE06820F41F
:100AA000405040F01000E060A06AA0612069E06260
:100AB000606044F24001E0688843E06010BD0000DF
:100AC00010000200002801D000F03CB87047000080
:100AD00010B5014602A000F07DF8012010BD000015
:100AE00053494752545245443A20526564697265ED
:100AF00063743A2063616E2774206F70656E3A20CC
:100B00000000000010B5431C02E010F8011B71B199
:100B10008107FAD14FF0013202C88C1A8C4314EAD3
:100B2000C211F9D0C01A0A0603D0C01E10BDC01AE7
:100B300010BD0A0401D0801E10BD0902FCD0401E69
:100B400010BD000001491820ABBEFEE726000200E0
:100B500000210160C0E90110704710207047034672
:100B600040688C46002818BF88423CBF0346406856
:100B7000F8D318681844884207D00CF1030020F01D
:100B80000700001D411A521A0146081D0A60FFF7AE
:100B90002FBD10B50146C268900703D0900607D557
:100BA000886A0AE000F03EF801210160881E10BD4D
:100BB0008B69486818440B69C01A91F848301BB11A
:100BC00091F84910401A10BD1103FCD50028FADD38
:100BD000401E10BD70B505460C460A2000E06D1C95
:100BE00000F018F835B128780028F8D102E0641C2C
:100BF00000F010F814B120780028F8D1BDE870405A
:100C00000A2000F007B810B500F010F8BDE8104059
:100C1000FFF758BF08B569468DF800000320ABBE4A
:100C200008BD0000004870477446002010B5012838
:100C300005D0002103A0FFF7CDFF012010BD09A1C1
:100C4000F8E7000053494752544D454D3A204F753F
:100C500074206F662068656170206D656D6F7279B4
:100C6000000000003A2048656170206D656D6F726C
:100C70007920636F7272757074656400FEE7704767
:100C800072B6FEE770B5044600F00CF90546601C2C
:100C900002D004480078044400F004F9401BA0424C
:100CA000FAD370BD040000202DE9F84FDFF8B891A9
:100CB000002409F1040A0AF1040B23460F270BF163
:100CC000040EC9E00125A5402A40AA427DD1674E05
:100CD000D1F804C0ACEB0608B44532D014DCBCF14A
:100CE000030F3AD009DCBCF1000F2AD0BCF1010F90
:100CF0001CD0BCF1020F31D11DE0BCF1110F17D097
:100D0000BCF1120F2AD119E0B8F5881F19D006DC02
:100D1000B8F5803F15D0B8F5801F1FD111E0B8F5A8
:100D2000001F0ED0B8F5041F18D10AE0CB6815E0FB
:100D3000CB681B1D12E0CB6808330FE0CB680C3387
:100D40000CE08B682BB1012B4FF0080303D04561F9
:100D500004E0042302E0056100E00023FF2A01D83B
:100D6000064601E000F104064FEA840501D9A5F129
:100D70002005D6F8008007FA05FC28EA0C0803FADB
:100D800005F548EA0508C6F800804D68ED0062D513
:100D9000374DAE6946F00106AE61AD6924F0030639
:100DA00005F001050095334D06EB050CDCF8085005
:100DB000A607360F07FA06F825EA0805DFF8B88017
:100DC000404503D14FF0000817E044E0DFF8AC8065
:100DD000404502D14FF001080FE0DFF8A480404504
:100DE00002D14FF0020808E0DFF89880404502D1B8
:100DF0004FF0030801E04FF0040808FA06F848EA4B
:100E00000508CCF808804D68D9F80060ED034D4620
:100E100001D5164300E096432E604D68DAF8006075
:100E2000AD03554601D5164300E096432E604D684C
:100E3000DBF80060ED025D4601D5164300E0964305
:100E40002E604D68DEF80060AD02754601D5164390
:100E500000E096432E60641C0D682A46E5407FF44E
:100E600031AFBDE8F88F0000000401400000111010
:100E7000001002400000014000080140000C014049
:100E80000010014000140140C26821EA02030A4038
:100E900043EA0241016170470AB1016170470904E8
:100EA000FBE7000001488068704700000400002054
:100EB0000248816802781144816070470400002074
:100EC000074810B5016841F010010160032000F0EF
:100ED00067F80F2000F006F800F024F8002010BD9D
:100EE0000020024070B50D4D04464FF47A71287809
:100EF000B1FBF0F00A490968B1FBF0F000F0DEFA4E
:100F000048B9102C07D200222146501E00F028F8C4
:100F100000206C6070BD012070BD00000400002046
:100F2000100000200C4808B5816941F00101816181
:100F3000816901F001010091C16941F08051C161F5
:100F4000C06900F0805000900448416821F0E061E1
:100F500041F00071416008BD0010024000000140F6
:100F6000F0B40E4B1B680C46C3F30223C3F1070514
:100F7000042D00D90425191D072901D2002300E002
:100F8000DB1E012606FA05F1491E214099409E40CC
:100F9000761E16403143F0BC00F081BC0CED00E041
:100FA000064900F0070208684FF6FF03184040EAC0
:100FB0000220034A10430860704700000CED00E077
:100FC0000000FA052DE9F0470F46050061D0434EB9
:100FD000306800F00700B84209D2306820F00700FE
:100FE00038433060306800F00700B84251D12868BB
:100FF0003B4C810712D5400703D5606840F4E060A0
:1010000060602878000703D5606840F46050606035
:101010006068A96820F0F000084360602878C00785
:1010200028D06868012810D02168022810D08907CC
:1010300000292EDA616821F0030101436160FFF7A6
:1010400031FF804641F288390DE021688903EFE7DE
:101050008901EDE7FFF726FFA0EB0801494502D91A
:101060000320BDE8F0876068696800F00C00B0EB11
:10107000810FEFD1306800F00700B8420BD930681B
:1010800020F0070038433060306800F00700B842B5
:1010900001D00120E5E72878400705D56068E968B8
:1010A00020F4E060084360602878000706D5606897
:1010B000296920F4605040EAC100606000F038F80F
:1010C0006168084AC1F30311515CC84006490860D1
:1010D00006480068FFF706FF0020C2E70020024034
:1010E00000100240901F000810000020080000209F
:1010F0000448054900684968044AC1F30221515C6B
:10110000C84070471000002000100240A01F0008D7
:101110000448054900684968044AC1F3C221515C8A
:10112000C84070471000002000100240A01F0008B7
:1011300012A185B00FC98DE80F0014A0144A0068F1
:1011400004905168134801F00C03042B10D0082BB5
:101150000ED1C1F38343C9031DF803000AD55168BA
:1011600004AAC1F34041515C0A4A5043B0FBF1F07C
:1011700005B0704708494843FAE700000203040538
:10118000060708090A0B0C0D0E0F101001020000D3
:101190000010024000127A0000093D002DE9F84FCE
:1011A000040070D02078C04DC00749D06868C0F3F3
:1011B0008100012807D06868C0F38100022809D1A6
:1011C0006868C00306D52868800339D560680028A0
:1011D000E7D035E06068B0F5803F0BD010B1B0F5D6
:1011E000A02F11D0286820F480302860286820F4CF
:1011F000802002E0286840F480302860606890B168
:10120000FFF750FE06460AE0286840F48020286078
:10121000F0E700BFFFF746FE801B642873D82868FC
:101220008003F7D50CE0FFF73DFE064605E000BF62
:10123000FFF738FE801B6428F0D828688003F7D4B5
:1012400020789A4E80074FF001094FF0000839D5F9
:10125000686810F00C0F07D06868C0F3810002289E
:1012600009D16868C00306D42868800714D52069AE
:10127000012808D110E02069B0B1C6F80090FFF74E
:1012800011FE074605E00AE1FFF70CFEC01B02282D
:10129000C4D828688007F7D52868616920F0F8006D
:1012A00040EAC10028600DE0C6F80080FFF7FAFDB3
:1012B000074604E0FFF7F6FDC01B022823D8286884
:1012C0008007F7D4207800072CD57948A169D9B1D7
:1012D000C0F80090FFF7E6FD074604E0FFF7E2FDE7
:1012E000C01B02280FD8686A8007F7D571484FF4F1
:1012F000FA510068B0FBF1F0009000BF0098411E69
:101300000091FAD20EE080E0C0F80080FFF7CAFD3D
:10131000074604E0FFF7C6FDC01B022875D8686ABF
:101320008007F7D42078400760D5E8690027C0001F
:1013300008D4E86940F08050E861E869012700F0CE
:10134000805000905C480168C90513D40168834649
:1013500041F480710160FFF7A5FD824606E000BF01
:10136000FFF7A0FDA0EB0A0064284ED8DBF80000D0
:10137000C005F5D5E06801280AD008B1052813D0CA
:10138000286A20F001002862286A20F0040002E0A8
:10139000286A40F001002862E06841F2883B98B179
:1013A000FFF780FD82460BE0286A40F004002862C7
:1013B000EEE700BFFFF776FDA0EB0A0159455AD8CA
:1013C000286A8007F6D50CE0FFF76CFD824605E041
:1013D000FFF768FDA0EB0A0159454CD8286A800741
:1013E000F6D41FB1E86920F08050E861E06988B365
:1013F0006968C1F38101022944D00228C6F86080DF
:1014000004D0FFF74FFD044638E034E0FFF74AFD13
:10141000074604E0FFF746FDC01B02282BD82868CA
:101420008001F7D4206AB0F5803F05D16868A168D3
:1014300020F4003008436860D4E908010843696873
:1014400021F4741108436860C6F86090FFF72AFD24
:10145000044606E025E000BFFFF724FD001B02283C
:1014600009D828688001F7D51BE000BFFFF71AFDF7
:10147000001B022802D90320BDE8F88F28688001EC
:10148000F4D40EE00128F7D06868226A00F48031B5
:10149000914204D1616A00F47010884201D00120A9
:1014A000EAE70020E8E700000010024000004242A6
:1014B00080044242100000200070004010B5401E21
:1014C000B0F1807F01D3012010BD4FF0E0246061B6
:1014D0000F21601700F0E3F90020A06107202061D0
:1014E000002010BD70B5040004D094F83D00002524
:1014F00010B106E0012070BD84F83C50204600F099
:1015000023F8242084F83D002068C16821F40051AC
:10151000C160204600F034F92068016921F490414F
:1015200001612068416921F02A0141612068C16898
:1015300041F40051C1602564202084F83D0084F806
:101540003E00002070BD000030B585B0002400943E
:1015500001940294039400681449884224D11448E9
:10156000816941F480418161816901F48041049184
:10157000816941F00401816180690E4D00F0040031
:1015800004904FF40070009002200190032003901B
:1015900069462846FFF788FB2815CDE9000469460F
:1015A00028460294FFF780FB05B030BD00380140AB
:1015B00000100240000801402DE9F843044690F86D
:1015C0003D001F4616460D4620284CD1C5B1BEB180
:1015D00094F83C00012846D0012084F83C004FF0EC
:1015E0000008C4F84080212084F83D00FFF75AFC31
:1015F000A6848146E684A068B0F5805F03D004E04D
:101600000120BDE8F883206928B12E465FF000056F
:1016100084F83C800EE00026FAE78021204600F0A6
:101620000BF9A0B9AEB116F8010B21684860E08C47
:10163000401EE084E08C4B464FF0000200970028EB
:10164000EBD14FF04001204600F0F6F830B1032016
:10165000D7E735F8020BC0F30800E6E7202084F84E
:101660003D000020CDE70220CBE7FEE770B586B055
:10167000002418480094019402940394816941F075
:1016800010018161816901F010010491816941F0CB
:1016900020018161816901F020010491816941F09B
:1016A0000401816180690C4E00F004004FF4005584
:1016B0000490002229463046FFF7EEFB01200095FA
:1016C000CDE901040220039069463046FFF7ECFAA9
:1016D00006B070BD00100240001001400C4810B56B
:1016E0000A4901604FF4E1314160002181600C2220
:1016F000C160C0E904128161C161FFF7F3FE0028F7
:1017000003D0BDE81040FFF7BBBA10BD0038014060
:101710006C000020FEE7FEE770477047FFF7C8BB8C
:1017200030B58FB028216846FEF7FFFD14210AA8C6
:10173000FEF7FBFD01210804CDE90010002402940E
:1017400002250491CDE907504FF4E0100990684656
:10175000FFF724FD08B172B6FEE70F20CDE90A05B8
:101760004FF48060CDE90C4002210AA80E94FFF7E7
:1017700029FC002801D072B6FEE70FB030BD7047DB
:1017800070B5044600680169E26821F440511143D4
:1017900001612169A0680843616908432168CA683A
:1017A00041F20C639A430243CA6020684169A2690E
:1017B00021F44071114341611E492068884202D1E1
:1017C000FFF7A6FC01E0FFF793FC00EBC00101EB83
:1017D0000012606864218000B2FBF0F3B3FBF1F308
:1017E0006FF018067343B2FBF0F5B2FBF0F605EBB1
:1017F0008305322303EB0515B5FBF1F5B6FBF1F6D6
:1018000005F0F00505EB0615B2FBF0F6B2FBF0F0C3
:10181000B0FBF1F06FF01802504306EB800003EBD1
:101820000010B0FBF1F0216800F00F002844886040
:1018300070BD0000003801402DE9F0419846174680
:101840000E460446069D1DE0681C1BD02DB1FFF717
:1018500029FBA0EB0800A84214D92068C16821F434
:10186000D071C1602068416921F0010141612020EF
:1018700084F83D0084F83E00002084F83C000320FA
:10188000BDE8F0812068006836EA000004D000203E
:10189000B842D9D00020F3E70120F9E7FEE70907B5
:1018A000090E002804DB00F1E02080F800147047E6
:1018B00000F00F0000F1E02080F8141D70470000D8
:1018C00013B54FF0FF33012269460248FFF774FE5B
:1018D00000981CBD6C0000201CB5FFF7F1FAFFF763
:1018E0001FFFFFF7C3FEFFF7F9FE06490420CDE90D
:1018F00000010023802204A1054800F00DFA00F049
:10190000A1F9FEE7000000205461736B00000000A5
:10191000691B00082DE9F041054600F063F9334CDE
:10192000A068401CA0602068314F10B1606940B3CE
:101930002DE02560A068012829D1002606EB86004D
:1019400007EB800000F03FF9761C052EF6D32848FF
:10195000643000F038F92648783000F034F9244833
:101960008C3000F030F92248A03000F02CF92048EB
:10197000B43000F028F91E486430A0631430E063EE
:1019800005E02068E96AC06A884200D82560606A7C
:10199000401C6062E86A2169884200D9206100EB3E
:1019A000800007EB80004068A8608168E960826879
:1019B000291D51608160E86A00EB800007EB80011F
:1019C000696157F82010491C47F8201000F016F9FB
:1019D0006069002808D02068E96AC06A884203D29A
:1019E000BDE8F04100F022B9BDE8F081140000200C
:1019F000B000002010B50446006B00F009F9204645
:101A0000BDE8104000F004B9104E114CA6F1A0073B
:101A100012E000BF00F0E6F8F068C568281D00F08D
:101A2000BFF8A068401EA0606068401E606000F0C3
:101A3000E5F82846FFF7DEFF60680028EAD138683D
:101A40000128F9D900F0F2F8F6E700005001002073
:101A5000140000202DE9F0479A46DDE9097481461B
:101A60006FF00303206B03EB8202089E104420F00A
:101A70000708002561B1002023180A5C83F8342090
:101A80000A5C12B1401C1028F6D384F8435001E0E0
:101A900084F83450052E00D30426201DE66200F0A1
:101AA0009DF804F1180000F099F82461C6F10500D2
:101AB0006462A061656484F84850524649464046D5
:101AC00000F042F82060002F00D03C60BDE8F087B5
:101AD0000548816B096821B1816BC9680968816219
:101AE00070474FF0FF31FAE71400002072B6FEE7AE
:101AF00070B504460025400709D004F00700C0F186
:101B000008002044A04201D9044600E0002400F06F
:101B1000BBF80B48416819B90A4921F00701416037
:101B200054B1026844F2F8331119994204D2914237
:101B300002D9436801609D1800F0A8F9284670BDDD
:101B4000580000207F01002010B5031F4FF0807463
:101B50001C601B1F1960191F024B0B6014394038A1
:101B60000A6010BDED1A00084FF40054064D2146DE
:101B70002846FFF789F96420FFF784F841226121A4
:101B800002A0FEF769FBF2E70010014043686172B2
:101B90006163746572733A2025632025630A00002F
:101BA000D0E9013201699A60D0E901235A604A689C
:101BB000824201D182684A60002202610868401EA8
:101BC00008600868704700F108014FF0FF32C0E973
:101BD0000112C160016100210160704700210161B3
:101BE0007047000072B604480168491C0160BFF3E9
:101BF0004F8FBFF36F8F7047540000200349086870
:101C0000401E086000D162B67047000054000020FA
:101C1000704700004FF0E02000210161816102491E
:101C200041610721016170473F19010004494FF0EC
:101C300080500860BFF34F8FBFF36F8F7047000075
:101C400004ED00E07CB50C480025CDE900502B46A2
:101C500080220AA10B4800F05FF8074C2C3C0128B9
:101C600008D172B64FF0FF30A06201206061E560DC
:101C700000F03AF8206B7CBD4000002049444C4500
:101C800000000000091A00080248416B491C41632A
:101C90007047000014000020114810B5416B11B1CD
:101CA0000121C16110BD0021C16102690D4900E03F
:101CB000521E02EB820351F82330002BF8D002EBC6
:101CC000820301EB830101F108044B685B684B6000
:101CD000A34201D15B684B60D9680160026110BD0D
:101CE00014000020B0000020094810B5016841F43C
:101CF0007F010160016841F07F410160FFF78AFFC9
:101D0000044900200860FEF74BFA002010BD0000D7
:101D100020ED00E0540000202DE9FF5F8346DDE95F
:101D20000E87994616468A469000FFF7E1FE0500A9
:101D30001AD04C20FFF7DCFE040012D025630021EE
:101D4000CDE90241CDE900874B463246514658461F
:101D5000FFF780FE2046FFF7DDFD012004B0BDE85F
:101D6000F09F2846FFF754FF4FF0FF30F6E70000E2
:101D70002DE9F041434C0026606B28B1A069401C5E
:101D8000A0613046BDE8F081E5686D1CE56008D1D2
:101D9000A06BE16BA163E063206A401C2062FFF747
:101DA00097FEA16A38488D420FD34FF0000EA16B09
:101DB000096839B1A16BC968C9684A68954212D2ED
:101DC000A26202E04FF0FF31A1622168C96A01EB13
:101DD000810150F82100012800D90126E06900287E
:101DE000CFD00126CDE7D1E902274B699760D1E931
:101DF00002277A605F680A1D974201D1CF685F6051
:101E0000C1F814E01F687F1E1F60D1F828C0BCF124
:101E1000000F15D0D1E907379F60D1E907377B6004
:101E2000DCF8047001F118039F4202D10B6ACCF870
:101E30000430C1F828E0DCF800305B1ECCF800303C
:101E4000CB6A2769BB4200D9236103EB830300EB14
:101E500083035B688B609F68CF609F687A609A603D
:101E6000CA6A02EB820200EB82034B6150F8223017
:101E70005B1C40F82230C96A2268D26A914296D32C
:101E8000012694E714000020B00000202DE9F04165
:101E900000242746FFF7A6FE3B4D686B401E686393
:101EA000686B00286BD1A868384A00264FF00108FB
:101EB000E8BB64E0D068C468D4E90731A06A9960DF
:101EC000D4E907135960436804F118018B4201D12A
:101ED000216A4160A6620168491E0160D4E90231AD
:101EE00060699960D4E9021359604368211D8B42EF
:101EF00001D1E3684360666103685B1E0360E06ACA
:101F00002B69984200D92861204B00EB80008C3B64
:101F100003EB80004068A060D0F808C0C4F80CC093
:101F2000D0F808C0CCF804108160E06A00E010E04E
:101F300000EB800003EB8001616153F82010491C25
:101F400043F82010E06A2968C96A884201D3C5F8BD
:101F50001C8010680028ADD10CB1FFF7B9FDAC6949
:101F600044B100BFFFF704FF08B1C5F81C80641E30
:101F7000F8D1AE61E86910B10127FFF757FEFFF70E
:101F80003DFE3846BDE8F081140000203C010020F1
:101F90000000000000000000010203040607080919
:101FA00000000000010203043A7474003A747400E3
:101FB0003A747400D41F0008000000206C00000078
:101FC00028010008402000086C0000206C4C000034
:101FD00044010008000000000100000010000000A3
:101FE000000000000024F4000000000000000000D9
:101FF00000000000000000000000000000000000E1
:1020000000000000000000000000000000000000D0
:1020100000000000000000000400000000000000BC
:102020000000000000000000AAAAAAAA0000000008
:1020300000000000000000000000000000000000A0
:04000005080000ED02
:00000001FF
